{
  "_format": "hh3-artifact-1",
  "contractName": "TicTacToe",
  "sourceName": "contracts/TicTacToe.sol",
  "abi": [
    {
      "inputs": [],
      "stateMutability": "nonpayable",
      "type": "constructor"
    },
    {
      "anonymous": false,
      "inputs": [
        {
          "indexed": false,
          "internalType": "uint256",
          "name": "gameId",
          "type": "uint256"
        },
        {
          "indexed": false,
          "internalType": "address",
          "name": "player1",
          "type": "address"
        }
      ],
      "name": "GameCreated",
      "type": "event"
    },
    {
      "anonymous": false,
      "inputs": [
        {
          "indexed": false,
          "internalType": "uint256",
          "name": "gameId",
          "type": "uint256"
        },
        {
          "indexed": false,
          "internalType": "address",
          "name": "player2",
          "type": "address"
        }
      ],
      "name": "GameJoined",
      "type": "event"
    },
    {
      "anonymous": false,
      "inputs": [
        {
          "indexed": false,
          "internalType": "uint256",
          "name": "gameId",
          "type": "uint256"
        },
        {
          "indexed": false,
          "internalType": "address",
          "name": "player",
          "type": "address"
        },
        {
          "indexed": false,
          "internalType": "uint256",
          "name": "x",
          "type": "uint256"
        },
        {
          "indexed": false,
          "internalType": "uint256",
          "name": "y",
          "type": "uint256"
        }
      ],
      "name": "MoveMade",
      "type": "event"
    },
    {
      "inputs": [],
      "name": "createGame",
      "outputs": [],
      "stateMutability": "nonpayable",
      "type": "function"
    },
    {
      "inputs": [
        {
          "internalType": "uint256",
          "name": "",
          "type": "uint256"
        }
      ],
      "name": "games",
      "outputs": [
        {
          "internalType": "address",
          "name": "player1",
          "type": "address"
        },
        {
          "internalType": "address",
          "name": "player2",
          "type": "address"
        },
        {
          "internalType": "uint256",
          "name": "id",
          "type": "uint256"
        },
        {
          "internalType": "address",
          "name": "currentPlayer",
          "type": "address"
        },
        {
          "internalType": "bool",
          "name": "isFinished",
          "type": "bool"
        }
      ],
      "stateMutability": "view",
      "type": "function"
    },
    {
      "inputs": [
        {
          "internalType": "uint256",
          "name": "gameId",
          "type": "uint256"
        }
      ],
      "name": "getGame",
      "outputs": [
        {
          "internalType": "enum TicTacToe.FieldStatus[5][5]",
          "name": "",
          "type": "uint8[5][5]"
        }
      ],
      "stateMutability": "view",
      "type": "function"
    },
    {
      "inputs": [
        {
          "internalType": "uint256",
          "name": "gameId",
          "type": "uint256"
        }
      ],
      "name": "joinGame",
      "outputs": [],
      "stateMutability": "nonpayable",
      "type": "function"
    },
    {
      "inputs": [
        {
          "internalType": "uint256",
          "name": "gameID",
          "type": "uint256"
        },
        {
          "internalType": "uint256",
          "name": "x",
          "type": "uint256"
        },
        {
          "internalType": "uint256",
          "name": "y",
          "type": "uint256"
        }
      ],
      "name": "makeMove",
      "outputs": [],
      "stateMutability": "nonpayable",
      "type": "function"
    },
    {
      "inputs": [],
      "name": "nextGameId",
      "outputs": [
        {
          "internalType": "uint256",
          "name": "",
          "type": "uint256"
        }
      ],
      "stateMutability": "view",
      "type": "function"
    }
  ],
  "bytecode": "0x6080604052348015600e575f5ffd5b506113c38061001c5f395ff3fe608060405234801561000f575f5ffd5b5060043610610060575f3560e01c8063117a5b90146100645780637255d72914610098578063a2f77bcc146100a2578063b135bbb0146100d2578063cfc2f5ff146100f0578063efaa55a01461010c575b5f5ffd5b61007e60048036038101906100799190610da7565b610128565b60405161008f959493929190610e3a565b60405180910390f35b6100a06101d2565b005b6100bc60048036038101906100b79190610da7565b61048a565b6040516100c9919061102a565b60405180910390f35b6100da61055e565b6040516100e79190611044565b60405180910390f35b61010a6004803603810190610105919061105d565b610564565b005b61012660048036038101906101219190610da7565b6108c8565b005b5f8181548110610136575f80fd5b905f5260205f2090600902015f91509050805f015f9054906101000a900473ffffffffffffffffffffffffffffffffffffffff1690806001015f9054906101000a900473ffffffffffffffffffffffffffffffffffffffff1690806002015490806008015f9054906101000a900473ffffffffffffffffffffffffffffffffffffffff16908060080160149054906101000a900460ff16905085565b6101da610b6e565b33815f019073ffffffffffffffffffffffffffffffffffffffff16908173ffffffffffffffffffffffffffffffffffffffff168152505060015f815480929190610223906110da565b9190505581604001818152505033816080019073ffffffffffffffffffffffffffffffffffffffff16908173ffffffffffffffffffffffffffffffffffffffff16815250505f8160a00190151590811515815250505f5f90505b600581101561030d575f5f90505b60058110156102ff575f836060015183600581106102ac576102ab611121565b5b602002015182600581106102c3576102c2611121565b5b602002019060028111156102da576102d9610ec5565b5b908160028111156102ee576102ed610ec5565b5b81525050808060010191505061028b565b50808060010191505061027d565b505f81908060018154018082558091505060019003905f5260205f2090600902015f909190919091505f820151815f015f6101000a81548173ffffffffffffffffffffffffffffffffffffffff021916908373ffffffffffffffffffffffffffffffffffffffff1602179055506020820151816001015f6101000a81548173ffffffffffffffffffffffffffffffffffffffff021916908373ffffffffffffffffffffffffffffffffffffffff160217905550604082015181600201556060820151816003019060056103e1929190610be9565b506080820151816008015f6101000a81548173ffffffffffffffffffffffffffffffffffffffff021916908373ffffffffffffffffffffffffffffffffffffffff16021790555060a08201518160080160146101000a81548160ff02191690831515021790555050507fc3e0f84839dc888c892a013d10c8f9d6dc05a21a879d0ce468ca558013e9121c81604001513360405161047f92919061114e565b60405180910390a150565b610492610c37565b5f82815481106104a5576104a4611121565b5b905f5260205f209060090201600301600580602002604051908101604052809291905f905b828210156105535783820160058060200260405190810160405280929190826005801561053f576020028201915f905b82829054906101000a900460ff16600281111561051a57610519610ec5565b5b815260200190600101906020825f010492830192600103820291508084116104fa5790505b5050505050815260200190600101906104ca565b505050509050919050565b60015481565b5f8210158015610575575060058211155b801561058157505f8110155b801561058e575060058111155b6105cd576040517f08c379a00000000000000000000000000000000000000000000000000000000081526004016105c4906111cf565b60405180910390fd5b5f5f6105d885610a9b565b815481106105e9576105e8611121565b5b905f5260205f20906009020190503373ffffffffffffffffffffffffffffffffffffffff16816008015f9054906101000a900473ffffffffffffffffffffffffffffffffffffffff1673ffffffffffffffffffffffffffffffffffffffff1614610651575f5ffd5b5f600281111561066457610663610ec5565b5b81600301846005811061067a57610679611121565b5b01836005811061068d5761068c611121565b5b602091828204019190069054906101000a900460ff1660028111156106b5576106b4610ec5565b5b146106f5576040517f08c379a00000000000000000000000000000000000000000000000000000000081526004016106ec90611237565b60405180910390fd5b5f3373ffffffffffffffffffffffffffffffffffffffff16825f015f9054906101000a900473ffffffffffffffffffffffffffffffffffffffff1673ffffffffffffffffffffffffffffffffffffffff1614610752576002610755565b60015b90508082600301856005811061076e5761076d611121565b5b01846005811061078157610780611121565b5b602091828204019190066101000a81548160ff021916908360028111156107ab576107aa610ec5565b5b02179055505f5f90506005811015610837578160028111156107d0576107cf610ec5565b5b8360030186600581106107e6576107e5611121565b5b0182600581106107f9576107f8611121565b5b602091828204019190069054906101000a900460ff16600281111561082157610820610ec5565b5b036108375761082f86610b2b565b5050506108c3565b505f5f905060058110156108bf5781600281111561085857610857610ec5565b5b83600301826005811061086e5761086d611121565b5b01856005811061088157610880611121565b5b602091828204019190069054906101000a900460ff1660028111156108a9576108a8610ec5565b5b036108bf576108b786610b2b565b5050506108c3565b5050505b505050565b5f6108d282610a9b565b90505f5f82815481106108e8576108e7611121565b5b905f5260205f20906009020190503373ffffffffffffffffffffffffffffffffffffffff16815f015f9054906101000a900473ffffffffffffffffffffffffffffffffffffffff1673ffffffffffffffffffffffffffffffffffffffff1603610986576040517f08c379a000000000000000000000000000000000000000000000000000000000815260040161097d9061129f565b60405180910390fd5b5f73ffffffffffffffffffffffffffffffffffffffff16816001015f9054906101000a900473ffffffffffffffffffffffffffffffffffffffff1673ffffffffffffffffffffffffffffffffffffffff1614610a17576040517f08c379a0000000000000000000000000000000000000000000000000000000008152600401610a0e90611307565b60405180910390fd5b33816001015f6101000a81548173ffffffffffffffffffffffffffffffffffffffff021916908373ffffffffffffffffffffffffffffffffffffffff1602179055507f45c4f9cbafe186141862608c493f28b823fde4c2142bedc3f5169961a73fdd22816002015433604051610a8e92919061114e565b60405180910390a1505050565b5f5f5f90505b5f80549050811015610aea57825f8281548110610ac157610ac0611121565b5b905f5260205f2090600902016002015403610adf5780915050610b26565b806001019050610aa1565b506040517f08c379a0000000000000000000000000000000000000000000000000000000008152600401610b1d9061136f565b60405180910390fd5b919050565b5f5f8281548110610b3f57610b3e611121565b5b905f5260205f209060090201905060018160080160146101000a81548160ff0219169083151502179055505050565b6040518060c001604052805f73ffffffffffffffffffffffffffffffffffffffff1681526020015f73ffffffffffffffffffffffffffffffffffffffff1681526020015f8152602001610bbf610c37565b81526020015f73ffffffffffffffffffffffffffffffffffffffff1681526020015f151581525090565b8260058101928215610c26579160200282015b82811115610c2557825182906005610c15929190610c64565b5091602001919060010190610bfc565b5b509050610c339190610d0a565b5090565b6040518060a001604052806005905b610c4e610d2d565b815260200190600190039081610c465790505090565b826005601f01602090048101928215610cf9579160200282015f5b83821115610ccb57835183826101000a81548160ff02191690836002811115610cab57610caa610ec5565b5b021790555092602001926001016020815f01049283019260010302610c7f565b8015610cf75782816101000a81549060ff02191690556001016020815f01049283019260010302610ccb565b505b509050610d069190610d4f565b5090565b5b80821115610d29575f8181610d209190610d6a565b50600101610d0b565b5090565b6040518060a00160405280600590602082028036833780820191505090505090565b5b80821115610d66575f815f905550600101610d50565b5090565b505f9055565b5f5ffd5b5f819050919050565b610d8681610d74565b8114610d90575f5ffd5b50565b5f81359050610da181610d7d565b92915050565b5f60208284031215610dbc57610dbb610d70565b5b5f610dc984828501610d93565b91505092915050565b5f73ffffffffffffffffffffffffffffffffffffffff82169050919050565b5f610dfb82610dd2565b9050919050565b610e0b81610df1565b82525050565b610e1a81610d74565b82525050565b5f8115159050919050565b610e3481610e20565b82525050565b5f60a082019050610e4d5f830188610e02565b610e5a6020830187610e02565b610e676040830186610e11565b610e746060830185610e02565b610e816080830184610e2b565b9695505050505050565b5f60059050919050565b5f81905092915050565b5f819050919050565b5f60059050919050565b5f81905092915050565b5f819050919050565b7f4e487b71000000000000000000000000000000000000000000000000000000005f52602160045260245ffd5b60038110610f0357610f02610ec5565b5b50565b5f819050610f1382610ef2565b919050565b5f610f2282610f06565b9050919050565b610f3281610f18565b82525050565b5f610f438383610f29565b60208301905092915050565b5f602082019050919050565b610f6481610ea8565b610f6e8184610eb2565b9250610f7982610ebc565b805f5b83811015610fa9578151610f908782610f38565b9650610f9b83610f4f565b925050600181019050610f7c565b505050505050565b5f610fbc8383610f5b565b60a08301905092915050565b5f602082019050919050565b610fdd81610e8b565b610fe78184610e95565b9250610ff282610e9f565b805f5b838110156110225781516110098782610fb1565b965061101483610fc8565b925050600181019050610ff5565b505050505050565b5f6103208201905061103e5f830184610fd4565b92915050565b5f6020820190506110575f830184610e11565b92915050565b5f5f5f6060848603121561107457611073610d70565b5b5f61108186828701610d93565b935050602061109286828701610d93565b92505060406110a386828701610d93565b9150509250925092565b7f4e487b71000000000000000000000000000000000000000000000000000000005f52601160045260245ffd5b5f6110e482610d74565b91507fffffffffffffffffffffffffffffffffffffffffffffffffffffffffffffffff8203611116576111156110ad565b5b600182019050919050565b7f4e487b71000000000000000000000000000000000000000000000000000000005f52603260045260245ffd5b5f6040820190506111615f830185610e11565b61116e6020830184610e02565b9392505050565b5f82825260208201905092915050565b7f496e76616c6964206669656c64000000000000000000000000000000000000005f82015250565b5f6111b9600d83611175565b91506111c482611185565b602082019050919050565b5f6020820190508181035f8301526111e6816111ad565b9050919050565b7f4669656c6420616c7265616479207365740000000000000000000000000000005f82015250565b5f611221601183611175565b915061122c826111ed565b602082019050919050565b5f6020820190508181035f83015261124e81611215565b9050919050565b7f596f752063616e6e6f74206a6f696e20796f7572206f776e2067616d650000005f82015250565b5f611289601d83611175565b915061129482611255565b602082019050919050565b5f6020820190508181035f8301526112b68161127d565b9050919050565b7f47616d6520616c7265616479206861732074776f20706c6179657273000000005f82015250565b5f6112f1601c83611175565b91506112fc826112bd565b602082019050919050565b5f6020820190508181035f83015261131e816112e5565b9050919050565b7f47616d65206e6f7420666f756e640000000000000000000000000000000000005f82015250565b5f611359600e83611175565b915061136482611325565b602082019050919050565b5f6020820190508181035f8301526113868161134d565b905091905056fea2646970667358221220ee2d5ad38c805727b9857d9021dd2d3a6c7dca8e562d0b26dba25af444c96dcf64736f6c634300081c0033",
  "linkReferences": {},
  "deployedLinkReferences": {},
  "immutableReferences": {},
  "inputSourceName": "project/contracts/TicTacToe.sol",
  "buildInfoId": "solc-0_8_28-3592a2e65201ca3565dce518af63611007fefb23"
}