{
  "_format": "hh3-artifact-1",
  "contractName": "TicTacToe",
  "sourceName": "contracts/TicTacToe.sol",
  "abi": [
    {
      "inputs": [],
      "stateMutability": "nonpayable",
      "type": "constructor"
    },
    {
      "anonymous": false,
      "inputs": [
        {
          "indexed": true,
          "internalType": "uint256",
          "name": "gameId",
          "type": "uint256"
        },
        {
          "indexed": true,
          "internalType": "address",
          "name": "player1",
          "type": "address"
        }
      ],
      "name": "GameCreated",
      "type": "event"
    },
    {
      "anonymous": false,
      "inputs": [
        {
          "indexed": true,
          "internalType": "uint256",
          "name": "gameId",
          "type": "uint256"
        },
        {
          "indexed": true,
          "internalType": "address",
          "name": "winner",
          "type": "address"
        },
        {
          "indexed": false,
          "internalType": "bool",
          "name": "isDraw",
          "type": "bool"
        }
      ],
      "name": "GameFinished",
      "type": "event"
    },
    {
      "anonymous": false,
      "inputs": [
        {
          "indexed": true,
          "internalType": "uint256",
          "name": "gameId",
          "type": "uint256"
        },
        {
          "indexed": true,
          "internalType": "address",
          "name": "player1",
          "type": "address"
        },
        {
          "indexed": true,
          "internalType": "address",
          "name": "player2",
          "type": "address"
        }
      ],
      "name": "GameJoined",
      "type": "event"
    },
    {
      "anonymous": false,
      "inputs": [
        {
          "indexed": true,
          "internalType": "uint256",
          "name": "gameId",
          "type": "uint256"
        },
        {
          "indexed": true,
          "internalType": "address",
          "name": "player",
          "type": "address"
        },
        {
          "indexed": false,
          "internalType": "uint256",
          "name": "x",
          "type": "uint256"
        },
        {
          "indexed": false,
          "internalType": "uint256",
          "name": "y",
          "type": "uint256"
        },
        {
          "indexed": false,
          "internalType": "address",
          "name": "nextPlayer",
          "type": "address"
        }
      ],
      "name": "MoveMade",
      "type": "event"
    },
    {
      "inputs": [],
      "name": "DEPOSIT_AMOUNT",
      "outputs": [
        {
          "internalType": "uint256",
          "name": "",
          "type": "uint256"
        }
      ],
      "stateMutability": "view",
      "type": "function"
    },
    {
      "inputs": [],
      "name": "FILED_SIZE",
      "outputs": [
        {
          "internalType": "uint8",
          "name": "",
          "type": "uint8"
        }
      ],
      "stateMutability": "view",
      "type": "function"
    },
    {
      "inputs": [],
      "name": "createGame",
      "outputs": [],
      "stateMutability": "payable",
      "type": "function"
    },
    {
      "inputs": [
        {
          "internalType": "uint256",
          "name": "",
          "type": "uint256"
        }
      ],
      "name": "games",
      "outputs": [
        {
          "internalType": "address",
          "name": "player1",
          "type": "address"
        },
        {
          "internalType": "address",
          "name": "player2",
          "type": "address"
        },
        {
          "internalType": "uint256",
          "name": "id",
          "type": "uint256"
        },
        {
          "internalType": "address",
          "name": "currentPlayer",
          "type": "address"
        },
        {
          "internalType": "bool",
          "name": "isFinished",
          "type": "bool"
        },
        {
          "internalType": "uint256",
          "name": "moves",
          "type": "uint256"
        }
      ],
      "stateMutability": "view",
      "type": "function"
    },
    {
      "inputs": [
        {
          "internalType": "uint256",
          "name": "gameId",
          "type": "uint256"
        }
      ],
      "name": "getCurrentPlayer",
      "outputs": [
        {
          "internalType": "address",
          "name": "",
          "type": "address"
        }
      ],
      "stateMutability": "view",
      "type": "function"
    },
    {
      "inputs": [
        {
          "internalType": "uint256",
          "name": "gameId",
          "type": "uint256"
        }
      ],
      "name": "getGame",
      "outputs": [
        {
          "internalType": "enum TicTacToe.FieldStatus[5][5]",
          "name": "",
          "type": "uint8[5][5]"
        }
      ],
      "stateMutability": "view",
      "type": "function"
    },
    {
      "inputs": [],
      "name": "getOpenGames",
      "outputs": [
        {
          "components": [
            {
              "internalType": "address",
              "name": "player1",
              "type": "address"
            },
            {
              "internalType": "address",
              "name": "player2",
              "type": "address"
            },
            {
              "internalType": "uint256",
              "name": "id",
              "type": "uint256"
            },
            {
              "internalType": "enum TicTacToe.FieldStatus[5][5]",
              "name": "board",
              "type": "uint8[5][5]"
            },
            {
              "internalType": "address",
              "name": "currentPlayer",
              "type": "address"
            },
            {
              "internalType": "bool",
              "name": "isFinished",
              "type": "bool"
            },
            {
              "internalType": "uint256",
              "name": "moves",
              "type": "uint256"
            }
          ],
          "internalType": "struct TicTacToe.Game[]",
          "name": "",
          "type": "tuple[]"
        }
      ],
      "stateMutability": "view",
      "type": "function"
    },
    {
      "inputs": [
        {
          "internalType": "uint256",
          "name": "gameId",
          "type": "uint256"
        }
      ],
      "name": "joinGame",
      "outputs": [],
      "stateMutability": "payable",
      "type": "function"
    },
    {
      "inputs": [
        {
          "internalType": "uint256",
          "name": "gameId",
          "type": "uint256"
        },
        {
          "internalType": "uint256",
          "name": "x",
          "type": "uint256"
        },
        {
          "internalType": "uint256",
          "name": "y",
          "type": "uint256"
        }
      ],
      "name": "makeMove",
      "outputs": [],
      "stateMutability": "nonpayable",
      "type": "function"
    },
    {
      "inputs": [],
      "name": "nextgameId",
      "outputs": [
        {
          "internalType": "uint256",
          "name": "",
          "type": "uint256"
        }
      ],
      "stateMutability": "view",
      "type": "function"
    },
    {
      "inputs": [],
      "name": "totalVolume",
      "outputs": [
        {
          "internalType": "uint256",
          "name": "",
          "type": "uint256"
        }
      ],
      "stateMutability": "view",
      "type": "function"
    },
    {
      "stateMutability": "payable",
      "type": "receive"
    }
  ],
  "bytecode": "0x6080604052348015600e575f5ffd5b506127808061001c5f395ff3fe60806040526004361061009f575f3560e01c80637255d729116100635780637255d729146101a5578063a2f77bcc146101af578063cfc2f5ff146101eb578063e75d7e3e14610213578063ec6925a71461023d578063efaa55a014610267576100a6565b806302d3ebb7146100aa5780630ad85a02146100d4578063117a5b90146100fe578063266386311461013f5780635f81a57c1461017b576100a6565b366100a657005b5f5ffd5b3480156100b5575f5ffd5b506100be610283565b6040516100cb9190611b2d565b60405180910390f35b3480156100df575f5ffd5b506100e8610288565b6040516100f59190611b5e565b60405180910390f35b348015610109575f5ffd5b50610124600480360381019061011f9190611ba5565b61028e565b60405161013696959493929190611c29565b60405180910390f35b34801561014a575f5ffd5b5061016560048036038101906101609190611ba5565b61033e565b6040516101729190611c88565b60405180910390f35b348015610186575f5ffd5b5061018f610388565b60405161019c9190611b5e565b60405180910390f35b6101ad61038e565b005b3480156101ba575f5ffd5b506101d560048036038101906101d09190611ba5565b6106c3565b6040516101e29190611e40565b60405180910390f35b3480156101f6575f5ffd5b50610211600480360381019061020c9190611e5a565b610797565b005b34801561021e575f5ffd5b50610227611077565b6040516102349190612070565b60405180910390f35b348015610248575f5ffd5b50610251611446565b60405161025e9190611b5e565b60405180910390f35b610281600480360381019061027c9190611ba5565b611452565b005b600581565b60015481565b5f818154811061029c575f80fd5b905f5260205f2090600a02015f91509050805f015f9054906101000a900473ffffffffffffffffffffffffffffffffffffffff1690806001015f9054906101000a900473ffffffffffffffffffffffffffffffffffffffff1690806002015490806008015f9054906101000a900473ffffffffffffffffffffffffffffffffffffffff16908060080160149054906101000a900460ff16908060090154905086565b5f5f828154811061035257610351612090565b5b905f5260205f2090600a02016008015f9054906101000a900473ffffffffffffffffffffffffffffffffffffffff169050919050565b60025481565b67016345785d8a000034146103d8576040517f08c379a00000000000000000000000000000000000000000000000000000000081526004016103cf90612117565b60405180910390fd5b3460025f8282546103e99190612162565b925050819055506103f861190a565b33815f019073ffffffffffffffffffffffffffffffffffffffff16908173ffffffffffffffffffffffffffffffffffffffff168152505060015f81548092919061044190612195565b9190505581604001818152505033816080019073ffffffffffffffffffffffffffffffffffffffff16908173ffffffffffffffffffffffffffffffffffffffff16815250505f8160a00190151590811515815250505f5f90505b600560ff16811015610531575f5f90505b600560ff16811015610523575f836060015183600581106104d0576104cf612090565b5b602002015182600581106104e7576104e6612090565b5b602002019060028111156104fe576104fd611cdb565b5b9081600281111561051257610511611cdb565b5b8152505080806001019150506104ac565b50808060010191505061049b565b505f81908060018154018082558091505060019003905f5260205f2090600a02015f909190919091505f820151815f015f6101000a81548173ffffffffffffffffffffffffffffffffffffffff021916908373ffffffffffffffffffffffffffffffffffffffff1602179055506020820151816001015f6101000a81548173ffffffffffffffffffffffffffffffffffffffff021916908373ffffffffffffffffffffffffffffffffffffffff1602179055506040820151816002015560608201518160030190600561060592919061198b565b506080820151816008015f6101000a81548173ffffffffffffffffffffffffffffffffffffffff021916908373ffffffffffffffffffffffffffffffffffffffff16021790555060a08201518160080160146101000a81548160ff02191690831515021790555060c0820151816009015550503373ffffffffffffffffffffffffffffffffffffffff1681604001517fc3e0f84839dc888c892a013d10c8f9d6dc05a21a879d0ce468ca558013e9121c60405160405180910390a350565b6106cb6119d9565b5f82815481106106de576106dd612090565b5b905f5260205f2090600a0201600301600580602002604051908101604052809291905f905b8282101561078c57838201600580602002604051908101604052809291908260058015610778576020028201915f905b82829054906101000a900460ff16600281111561075357610752611cdb565b5b815260200190600101906020825f010492830192600103820291508084116107335790505b505050505081526020019060010190610703565b505050509050919050565b5f82101580156107aa5750600560ff1682105b80156107b657505f8110155b80156107c55750600560ff1681105b610804576040517f08c379a00000000000000000000000000000000000000000000000000000000081526004016107fb90612226565b60405180910390fd5b5f5f61080f856116cb565b815481106108205761081f612090565b5b905f5260205f2090600a020190503373ffffffffffffffffffffffffffffffffffffffff16816008015f9054906101000a900473ffffffffffffffffffffffffffffffffffffffff1673ffffffffffffffffffffffffffffffffffffffff16146108bf576040517f08c379a00000000000000000000000000000000000000000000000000000000081526004016108b69061228e565b60405180910390fd5b5f15158160080160149054906101000a900460ff16151514610916576040517f08c379a000000000000000000000000000000000000000000000000000000000815260040161090d906122f6565b60405180910390fd5b5f600281111561092957610928611cdb565b5b81600301846005811061093f5761093e612090565b5b01836005811061095257610951612090565b5b602091828204019190069054906101000a900460ff16600281111561097a57610979611cdb565b5b146109ba576040517f08c379a00000000000000000000000000000000000000000000000000000000081526004016109b19061235e565b60405180910390fd5b5f3373ffffffffffffffffffffffffffffffffffffffff16825f015f9054906101000a900473ffffffffffffffffffffffffffffffffffffffff1673ffffffffffffffffffffffffffffffffffffffff1614610a17576002610a1a565b60015b905080826003018560058110610a3357610a32612090565b5b018460058110610a4657610a45612090565b5b602091828204019190066101000a81548160ff02191690836002811115610a7057610a6f611cdb565b5b0217905550816009015f815480929190610a8990612195565b9190505550600580610a9b919061237c565b60ff16826009015403610d095760018260080160146101000a81548160ff0219169083151502179055505f67016345785d8a00009050600281610ade91906123b8565b471015610b20576040517f08c379a0000000000000000000000000000000000000000000000000000000008152600401610b1790612469565b60405180910390fd5b5f835f015f9054906101000a900473ffffffffffffffffffffffffffffffffffffffff1673ffffffffffffffffffffffffffffffffffffffff1682604051610b67906124b4565b5f6040518083038185875af1925050503d805f8114610ba1576040519150601f19603f3d011682016040523d82523d5f602084013e610ba6565b606091505b5050905080610bea576040517f08c379a0000000000000000000000000000000000000000000000000000000008152600401610be190612512565b60405180910390fd5b5f846001015f9054906101000a900473ffffffffffffffffffffffffffffffffffffffff1673ffffffffffffffffffffffffffffffffffffffff1683604051610c32906124b4565b5f6040518083038185875af1925050503d805f8114610c6c576040519150601f19603f3d011682016040523d82523d5f602084013e610c71565b606091505b5050905080610cb5576040517f08c379a0000000000000000000000000000000000000000000000000000000008152600401610cac90612512565b60405180910390fd5b3373ffffffffffffffffffffffffffffffffffffffff16887f3c407d684f8e26ac47a42a0e982bc16fe05e96ce344f63a5736ec6c2690d77806001604051610cfd9190612530565b60405180910390a35050505b5f600190505f600190505f600190505f600190505f5f90505b600560ff16811015610f0857856002811115610d4157610d40611cdb565b5b876003018a60058110610d5757610d56612090565b5b018260058110610d6a57610d69612090565b5b602091828204019190069054906101000a900460ff166002811115610d9257610d91611cdb565b5b14610d9b575f94505b856002811115610dae57610dad611cdb565b5b876003018260058110610dc457610dc3612090565b5b018960058110610dd757610dd6612090565b5b602091828204019190069054906101000a900460ff166002811115610dff57610dfe611cdb565b5b14610e08575f93505b856002811115610e1b57610e1a611cdb565b5b876003018260058110610e3157610e30612090565b5b018260058110610e4457610e43612090565b5b602091828204019190069054906101000a900460ff166002811115610e6c57610e6b611cdb565b5b14610e75575f92505b856002811115610e8857610e87611cdb565b5b876003018260058110610e9e57610e9d612090565b5b018260016005610eae9190612549565b60ff16610ebb919061257d565b60058110610ecc57610ecb612090565b5b602091828204019190069054906101000a900460ff166002811115610ef457610ef3611cdb565b5b14610efd575f91505b806001019050610d22565b508380610f125750825b80610f1a5750815b80610f225750805b15610f3b57610f308961175b565b505050505050611072565b60016002811115610f4f57610f4e611cdb565b5b856002811115610f6257610f61611cdb565b5b14610f8f57855f015f9054906101000a900473ffffffffffffffffffffffffffffffffffffffff16610fb4565b856001015f9054906101000a900473ffffffffffffffffffffffffffffffffffffffff165b866008015f6101000a81548173ffffffffffffffffffffffffffffffffffffffff021916908373ffffffffffffffffffffffffffffffffffffffff1602179055503373ffffffffffffffffffffffffffffffffffffffff16897faca79c7ce34a22352147e331697fb33777129b09638cb5ab6e251b264b41cc478a8a8a6008015f9054906101000a900473ffffffffffffffffffffffffffffffffffffffff16604051611063939291906125b0565b60405180910390a35050505050505b505050565b60605f5f90505f5f90505b5f8054905081101561111e575f73ffffffffffffffffffffffffffffffffffffffff165f82815481106110b8576110b7612090565b5b905f5260205f2090600a02016001015f9054906101000a900473ffffffffffffffffffffffffffffffffffffffff1673ffffffffffffffffffffffffffffffffffffffff160361111157818061110d90612195565b9250505b8080600101915050611082565b505f8167ffffffffffffffff81111561113a576111396125e5565b5b60405190808252806020026020018201604052801561117357816020015b61116061190a565b8152602001906001900390816111585790505b5090505f5f90505f5f90505b5f8054905081101561143c575f73ffffffffffffffffffffffffffffffffffffffff165f82815481106111b5576111b4612090565b5b905f5260205f2090600a02016001015f9054906101000a900473ffffffffffffffffffffffffffffffffffffffff1673ffffffffffffffffffffffffffffffffffffffff160361142f575f818154811061121257611211612090565b5b905f5260205f2090600a02016040518060e00160405290815f82015f9054906101000a900473ffffffffffffffffffffffffffffffffffffffff1673ffffffffffffffffffffffffffffffffffffffff1673ffffffffffffffffffffffffffffffffffffffff168152602001600182015f9054906101000a900473ffffffffffffffffffffffffffffffffffffffff1673ffffffffffffffffffffffffffffffffffffffff1673ffffffffffffffffffffffffffffffffffffffff1681526020016002820154815260200160038201600580602002604051908101604052809291905f905b828210156113805783820160058060200260405190810160405280929190826005801561136c576020028201915f905b82829054906101000a900460ff16600281111561134757611346611cdb565b5b815260200190600101906020825f010492830192600103820291508084116113275790505b5050505050815260200190600101906112f7565b505050508152602001600882015f9054906101000a900473ffffffffffffffffffffffffffffffffffffffff1673ffffffffffffffffffffffffffffffffffffffff1673ffffffffffffffffffffffffffffffffffffffff1681526020016008820160149054906101000a900460ff1615151515815260200160098201548152505083838151811061141557611414612090565b5b6020026020010181905250818061142b90612195565b9250505b808060010191505061117f565b5081935050505090565b67016345785d8a000081565b5f61145c826116cb565b90505f5f828154811061147257611471612090565b5b905f5260205f2090600a020190503373ffffffffffffffffffffffffffffffffffffffff16815f015f9054906101000a900473ffffffffffffffffffffffffffffffffffffffff1673ffffffffffffffffffffffffffffffffffffffff1603611510576040517f08c379a00000000000000000000000000000000000000000000000000000000081526004016115079061265c565b60405180910390fd5b5f73ffffffffffffffffffffffffffffffffffffffff16816001015f9054906101000a900473ffffffffffffffffffffffffffffffffffffffff1673ffffffffffffffffffffffffffffffffffffffff16146115a1576040517f08c379a0000000000000000000000000000000000000000000000000000000008152600401611598906126c4565b60405180910390fd5b67016345785d8a000034146115eb576040517f08c379a00000000000000000000000000000000000000000000000000000000081526004016115e290612117565b60405180910390fd5b3460025f8282546115fc9190612162565b9250508190555033816001015f6101000a81548173ffffffffffffffffffffffffffffffffffffffff021916908373ffffffffffffffffffffffffffffffffffffffff1602179055503373ffffffffffffffffffffffffffffffffffffffff16815f015f9054906101000a900473ffffffffffffffffffffffffffffffffffffffff1673ffffffffffffffffffffffffffffffffffffffff1682600201547f8ca5b55df47712c5e59e7aaddc402fc30e6399e3498efec70a7e440bb9d2fac860405160405180910390a4505050565b5f5f5f90505b5f8054905081101561171a57825f82815481106116f1576116f0612090565b5b905f5260205f2090600a0201600201540361170f5780915050611756565b8060010190506116d1565b506040517f08c379a000000000000000000000000000000000000000000000000000000000815260040161174d9061272c565b60405180910390fd5b919050565b5f5f828154811061176f5761176e612090565b5b905f5260205f2090600a0201905060018160080160146101000a81548160ff0219169083151502179055505f600267016345785d8a00006117b091906123b8565b9050804710156117f5576040517f08c379a00000000000000000000000000000000000000000000000000000000081526004016117ec90612469565b60405180910390fd5b5f3373ffffffffffffffffffffffffffffffffffffffff168260405161181a906124b4565b5f6040518083038185875af1925050503d805f8114611854576040519150601f19603f3d011682016040523d82523d5f602084013e611859565b606091505b505090508061189d576040517f08c379a000000000000000000000000000000000000000000000000000000000815260040161189490612512565b60405180910390fd5b8160025f8282546118ae919061257d565b925050819055503373ffffffffffffffffffffffffffffffffffffffff16847f3c407d684f8e26ac47a42a0e982bc16fe05e96ce344f63a5736ec6c2690d77805f6040516118fc9190612530565b60405180910390a350505050565b6040518060e001604052805f73ffffffffffffffffffffffffffffffffffffffff1681526020015f73ffffffffffffffffffffffffffffffffffffffff1681526020015f815260200161195b6119d9565b81526020015f73ffffffffffffffffffffffffffffffffffffffff1681526020015f151581526020015f81525090565b82600581019282156119c8579160200282015b828111156119c7578251829060056119b7929190611a06565b509160200191906001019061199e565b5b5090506119d59190611aac565b5090565b6040518060a001604052806005905b6119f0611acf565b8152602001906001900390816119e85790505090565b826005601f01602090048101928215611a9b579160200282015f5b83821115611a6d57835183826101000a81548160ff02191690836002811115611a4d57611a4c611cdb565b5b021790555092602001926001016020815f01049283019260010302611a21565b8015611a995782816101000a81549060ff02191690556001016020815f01049283019260010302611a6d565b505b509050611aa89190611af1565b5090565b5b80821115611acb575f8181611ac29190611b0c565b50600101611aad565b5090565b6040518060a00160405280600590602082028036833780820191505090505090565b5b80821115611b08575f815f905550600101611af2565b5090565b505f9055565b5f60ff82169050919050565b611b2781611b12565b82525050565b5f602082019050611b405f830184611b1e565b92915050565b5f819050919050565b611b5881611b46565b82525050565b5f602082019050611b715f830184611b4f565b92915050565b5f5ffd5b611b8481611b46565b8114611b8e575f5ffd5b50565b5f81359050611b9f81611b7b565b92915050565b5f60208284031215611bba57611bb9611b77565b5b5f611bc784828501611b91565b91505092915050565b5f73ffffffffffffffffffffffffffffffffffffffff82169050919050565b5f611bf982611bd0565b9050919050565b611c0981611bef565b82525050565b5f8115159050919050565b611c2381611c0f565b82525050565b5f60c082019050611c3c5f830189611c00565b611c496020830188611c00565b611c566040830187611b4f565b611c636060830186611c00565b611c706080830185611c1a565b611c7d60a0830184611b4f565b979650505050505050565b5f602082019050611c9b5f830184611c00565b92915050565b5f60059050919050565b5f81905092915050565b5f819050919050565b5f60059050919050565b5f81905092915050565b5f819050919050565b7f4e487b71000000000000000000000000000000000000000000000000000000005f52602160045260245ffd5b60038110611d1957611d18611cdb565b5b50565b5f819050611d2982611d08565b919050565b5f611d3882611d1c565b9050919050565b611d4881611d2e565b82525050565b5f611d598383611d3f565b60208301905092915050565b5f602082019050919050565b611d7a81611cbe565b611d848184611cc8565b9250611d8f82611cd2565b805f5b83811015611dbf578151611da68782611d4e565b9650611db183611d65565b925050600181019050611d92565b505050505050565b5f611dd28383611d71565b60a08301905092915050565b5f602082019050919050565b611df381611ca1565b611dfd8184611cab565b9250611e0882611cb5565b805f5b83811015611e38578151611e1f8782611dc7565b9650611e2a83611dde565b925050600181019050611e0b565b505050505050565b5f61032082019050611e545f830184611dea565b92915050565b5f5f5f60608486031215611e7157611e70611b77565b5b5f611e7e86828701611b91565b9350506020611e8f86828701611b91565b9250506040611ea086828701611b91565b9150509250925092565b5f81519050919050565b5f82825260208201905092915050565b5f819050602082019050919050565b611edc81611bef565b82525050565b611eeb81611b46565b82525050565b5f81905092915050565b611f0481611ca1565b611f0e8184611ef1565b9250611f1982611cb5565b805f5b83811015611f49578151611f308782611dc7565b9650611f3b83611dde565b925050600181019050611f1c565b505050505050565b611f5a81611c0f565b82525050565b6103e082015f820151611f755f850182611ed3565b506020820151611f886020850182611ed3565b506040820151611f9b6040850182611ee2565b506060820151611fae6060850182611efb565b506080820151611fc2610380850182611ed3565b5060a0820151611fd66103a0850182611f51565b5060c0820151611fea6103c0850182611ee2565b50505050565b5f611ffb8383611f60565b6103e08301905092915050565b5f602082019050919050565b5f61201e82611eaa565b6120288185611eb4565b935061203383611ec4565b805f5b8381101561206357815161204a8882611ff0565b975061205583612008565b925050600181019050612036565b5085935050505092915050565b5f6020820190508181035f8301526120888184612014565b905092915050565b7f4e487b71000000000000000000000000000000000000000000000000000000005f52603260045260245ffd5b5f82825260208201905092915050565b7f4d7573742073656e642065786163746c7920302e3120455448000000000000005f82015250565b5f6121016019836120bd565b915061210c826120cd565b602082019050919050565b5f6020820190508181035f83015261212e816120f5565b9050919050565b7f4e487b71000000000000000000000000000000000000000000000000000000005f52601160045260245ffd5b5f61216c82611b46565b915061217783611b46565b925082820190508082111561218f5761218e612135565b5b92915050565b5f61219f82611b46565b91507fffffffffffffffffffffffffffffffffffffffffffffffffffffffffffffffff82036121d1576121d0612135565b5b600182019050919050565b7f496e76616c6964206669656c64000000000000000000000000000000000000005f82015250565b5f612210600d836120bd565b915061221b826121dc565b602082019050919050565b5f6020820190508181035f83015261223d81612204565b9050919050565b7f4e6f7420796f7572207475726e000000000000000000000000000000000000005f82015250565b5f612278600d836120bd565b915061228382612244565b602082019050919050565b5f6020820190508181035f8301526122a58161226c565b9050919050565b7f5468652067616d6520697320616c7265616479206f76657200000000000000005f82015250565b5f6122e06018836120bd565b91506122eb826122ac565b602082019050919050565b5f6020820190508181035f83015261230d816122d4565b9050919050565b7f4669656c6420616c7265616479207365740000000000000000000000000000005f82015250565b5f6123486011836120bd565b915061235382612314565b602082019050919050565b5f6020820190508181035f8301526123758161233c565b9050919050565b5f61238682611b12565b915061239183611b12565b925082820261239f81611b12565b91508082146123b1576123b0612135565b5b5092915050565b5f6123c282611b46565b91506123cd83611b46565b92508282026123db81611b46565b915082820484148315176123f2576123f1612135565b5b5092915050565b7f4e6f7420656e6f7567682062616c616e6365206f6e2074686520636f6e7472615f8201527f6374000000000000000000000000000000000000000000000000000000000000602082015250565b5f6124536022836120bd565b915061245e826123f9565b604082019050919050565b5f6020820190508181035f83015261248081612447565b9050919050565b5f81905092915050565b50565b5f61249f5f83612487565b91506124aa82612491565b5f82019050919050565b5f6124be82612494565b9150819050919050565b7f4661696c656420746f2073656e642045544800000000000000000000000000005f82015250565b5f6124fc6012836120bd565b9150612507826124c8565b602082019050919050565b5f6020820190508181035f830152612529816124f0565b9050919050565b5f6020820190506125435f830184611c1a565b92915050565b5f61255382611b12565b915061255e83611b12565b9250828203905060ff81111561257757612576612135565b5b92915050565b5f61258782611b46565b915061259283611b46565b92508282039050818111156125aa576125a9612135565b5b92915050565b5f6060820190506125c35f830186611b4f565b6125d06020830185611b4f565b6125dd6040830184611c00565b949350505050565b7f4e487b71000000000000000000000000000000000000000000000000000000005f52604160045260245ffd5b7f596f752063616e6e6f74206a6f696e20796f7572206f776e2067616d650000005f82015250565b5f612646601d836120bd565b915061265182612612565b602082019050919050565b5f6020820190508181035f8301526126738161263a565b9050919050565b7f47616d6520616c7265616479206861732074776f20706c6179657273000000005f82015250565b5f6126ae601c836120bd565b91506126b98261267a565b602082019050919050565b5f6020820190508181035f8301526126db816126a2565b9050919050565b7f47616d65206e6f7420666f756e640000000000000000000000000000000000005f82015250565b5f612716600e836120bd565b9150612721826126e2565b602082019050919050565b5f6020820190508181035f8301526127438161270a565b905091905056fea264697066735822122049c3a2fe86d554b956151829795074a07c0802abcb965974c04284b98266aa6264736f6c634300081c0033",
  "linkReferences": {},
  "deployedLinkReferences": {},
  "immutableReferences": {},
  "inputSourceName": "project/contracts/TicTacToe.sol",
  "buildInfoId": "solc-0_8_28-fe12ced4d44eb4dd71a9136c837e40548224d106"
}