{
  "_format": "hh3-artifact-1",
  "contractName": "TicTacToe",
  "sourceName": "contracts/TicTacToe.sol",
  "abi": [
    {
      "inputs": [],
      "stateMutability": "nonpayable",
      "type": "constructor"
    },
    {
      "anonymous": false,
      "inputs": [
        {
          "indexed": false,
          "internalType": "uint256",
          "name": "gameId",
          "type": "uint256"
        },
        {
          "indexed": false,
          "internalType": "address",
          "name": "player1",
          "type": "address"
        }
      ],
      "name": "GameCreated",
      "type": "event"
    },
    {
      "anonymous": false,
      "inputs": [
        {
          "indexed": false,
          "internalType": "uint256",
          "name": "gameId",
          "type": "uint256"
        },
        {
          "indexed": false,
          "internalType": "address",
          "name": "player2",
          "type": "address"
        }
      ],
      "name": "GameJoined",
      "type": "event"
    },
    {
      "anonymous": false,
      "inputs": [
        {
          "indexed": false,
          "internalType": "uint256",
          "name": "gameId",
          "type": "uint256"
        },
        {
          "indexed": false,
          "internalType": "address",
          "name": "player",
          "type": "address"
        },
        {
          "indexed": false,
          "internalType": "uint256",
          "name": "x",
          "type": "uint256"
        },
        {
          "indexed": false,
          "internalType": "uint256",
          "name": "y",
          "type": "uint256"
        }
      ],
      "name": "MoveMade",
      "type": "event"
    },
    {
      "inputs": [],
      "name": "DEPOSIT_AMOUNT",
      "outputs": [
        {
          "internalType": "uint256",
          "name": "",
          "type": "uint256"
        }
      ],
      "stateMutability": "view",
      "type": "function"
    },
    {
      "inputs": [],
      "name": "FILED_SIZE",
      "outputs": [
        {
          "internalType": "uint8",
          "name": "",
          "type": "uint8"
        }
      ],
      "stateMutability": "view",
      "type": "function"
    },
    {
      "inputs": [],
      "name": "createGame",
      "outputs": [],
      "stateMutability": "payable",
      "type": "function"
    },
    {
      "inputs": [
        {
          "internalType": "uint256",
          "name": "",
          "type": "uint256"
        }
      ],
      "name": "games",
      "outputs": [
        {
          "internalType": "address",
          "name": "player1",
          "type": "address"
        },
        {
          "internalType": "address",
          "name": "player2",
          "type": "address"
        },
        {
          "internalType": "uint256",
          "name": "id",
          "type": "uint256"
        },
        {
          "internalType": "address",
          "name": "currentPlayer",
          "type": "address"
        },
        {
          "internalType": "bool",
          "name": "isFinished",
          "type": "bool"
        },
        {
          "internalType": "uint256",
          "name": "moves",
          "type": "uint256"
        }
      ],
      "stateMutability": "view",
      "type": "function"
    },
    {
      "inputs": [
        {
          "internalType": "uint256",
          "name": "gameId",
          "type": "uint256"
        }
      ],
      "name": "getGame",
      "outputs": [
        {
          "internalType": "enum TicTacToe.FieldStatus[5][5]",
          "name": "",
          "type": "uint8[5][5]"
        }
      ],
      "stateMutability": "view",
      "type": "function"
    },
    {
      "inputs": [],
      "name": "getOpenGames",
      "outputs": [
        {
          "components": [
            {
              "internalType": "address",
              "name": "player1",
              "type": "address"
            },
            {
              "internalType": "address",
              "name": "player2",
              "type": "address"
            },
            {
              "internalType": "uint256",
              "name": "id",
              "type": "uint256"
            },
            {
              "internalType": "enum TicTacToe.FieldStatus[5][5]",
              "name": "board",
              "type": "uint8[5][5]"
            },
            {
              "internalType": "address",
              "name": "currentPlayer",
              "type": "address"
            },
            {
              "internalType": "bool",
              "name": "isFinished",
              "type": "bool"
            },
            {
              "internalType": "uint256",
              "name": "moves",
              "type": "uint256"
            }
          ],
          "internalType": "struct TicTacToe.Game[]",
          "name": "",
          "type": "tuple[]"
        }
      ],
      "stateMutability": "view",
      "type": "function"
    },
    {
      "inputs": [
        {
          "internalType": "uint256",
          "name": "gameId",
          "type": "uint256"
        }
      ],
      "name": "joinGame",
      "outputs": [],
      "stateMutability": "payable",
      "type": "function"
    },
    {
      "inputs": [
        {
          "internalType": "uint256",
          "name": "gameID",
          "type": "uint256"
        },
        {
          "internalType": "uint256",
          "name": "x",
          "type": "uint256"
        },
        {
          "internalType": "uint256",
          "name": "y",
          "type": "uint256"
        }
      ],
      "name": "makeMove",
      "outputs": [],
      "stateMutability": "nonpayable",
      "type": "function"
    },
    {
      "inputs": [],
      "name": "nextGameId",
      "outputs": [
        {
          "internalType": "uint256",
          "name": "",
          "type": "uint256"
        }
      ],
      "stateMutability": "view",
      "type": "function"
    },
    {
      "inputs": [],
      "name": "totalVolume",
      "outputs": [
        {
          "internalType": "uint256",
          "name": "",
          "type": "uint256"
        }
      ],
      "stateMutability": "view",
      "type": "function"
    },
    {
      "stateMutability": "payable",
      "type": "receive"
    }
  ],
  "bytecode": "0x6080604052348015600e575f5ffd5b5061253e8061001c5f395ff3fe608060405260043610610094575f3560e01c8063b135bbb011610058578063b135bbb01461017a578063cfc2f5ff146101a4578063e75d7e3e146101cc578063ec6925a7146101f6578063efaa55a0146102205761009b565b806302d3ebb71461009f578063117a5b90146100c95780635f81a57c1461010a5780637255d72914610134578063a2f77bcc1461013e5761009b565b3661009b57005b5f5ffd5b3480156100aa575f5ffd5b506100b361023c565b6040516100c0919061192b565b60405180910390f35b3480156100d4575f5ffd5b506100ef60048036038101906100ea919061197b565b610241565b60405161010196959493929190611a0e565b60405180910390f35b348015610115575f5ffd5b5061011e6102f1565b60405161012b9190611a6d565b60405180910390f35b61013c6102f7565b005b348015610149575f5ffd5b50610164600480360381019061015f919061197b565b610621565b6040516101719190611c25565b60405180910390f35b348015610185575f5ffd5b5061018e6106f5565b60405161019b9190611a6d565b60405180910390f35b3480156101af575f5ffd5b506101ca60048036038101906101c59190611c3f565b6106fb565b005b3480156101d7575f5ffd5b506101e0610f08565b6040516101ed9190611e55565b60405180910390f35b348015610201575f5ffd5b5061020a6112d7565b6040516102179190611a6d565b60405180910390f35b61023a6004803603810190610235919061197b565b6112e3565b005b600581565b5f818154811061024f575f80fd5b905f5260205f2090600a02015f91509050805f015f9054906101000a900473ffffffffffffffffffffffffffffffffffffffff1690806001015f9054906101000a900473ffffffffffffffffffffffffffffffffffffffff1690806002015490806008015f9054906101000a900473ffffffffffffffffffffffffffffffffffffffff16908060080160149054906101000a900460ff16908060090154905086565b60025481565b67016345785d8a00003414610341576040517f08c379a000000000000000000000000000000000000000000000000000000000815260040161033890611ecf565b60405180910390fd5b3460025f8282546103529190611f1a565b92505081905550610361611708565b33815f019073ffffffffffffffffffffffffffffffffffffffff16908173ffffffffffffffffffffffffffffffffffffffff168152505060015f8154809291906103aa90611f4d565b9190505581604001818152505033816080019073ffffffffffffffffffffffffffffffffffffffff16908173ffffffffffffffffffffffffffffffffffffffff16815250505f8160a00190151590811515815250505f5f90505b600560ff1681101561049a575f5f90505b600560ff1681101561048c575f8360600151836005811061043957610438611f94565b5b602002015182600581106104505761044f611f94565b5b6020020190600281111561046757610466611ac0565b5b9081600281111561047b5761047a611ac0565b5b815250508080600101915050610415565b508080600101915050610404565b505f81908060018154018082558091505060019003905f5260205f2090600a02015f909190919091505f820151815f015f6101000a81548173ffffffffffffffffffffffffffffffffffffffff021916908373ffffffffffffffffffffffffffffffffffffffff1602179055506020820151816001015f6101000a81548173ffffffffffffffffffffffffffffffffffffffff021916908373ffffffffffffffffffffffffffffffffffffffff1602179055506040820151816002015560608201518160030190600561056e929190611789565b506080820151816008015f6101000a81548173ffffffffffffffffffffffffffffffffffffffff021916908373ffffffffffffffffffffffffffffffffffffffff16021790555060a08201518160080160146101000a81548160ff02191690831515021790555060c0820151816009015550507fc3e0f84839dc888c892a013d10c8f9d6dc05a21a879d0ce468ca558013e9121c816040015133604051610616929190611fc1565b60405180910390a150565b6106296117d7565b5f828154811061063c5761063b611f94565b5b905f5260205f2090600a0201600301600580602002604051908101604052809291905f905b828210156106ea578382016005806020026040519081016040528092919082600580156106d6576020028201915f905b82829054906101000a900460ff1660028111156106b1576106b0611ac0565b5b815260200190600101906020825f010492830192600103820291508084116106915790505b505050505081526020019060010190610661565b505050509050919050565b60015481565b5f821015801561070e5750600560ff1682105b801561071a57505f8110155b80156107295750600560ff1681105b610768576040517f08c379a000000000000000000000000000000000000000000000000000000000815260040161075f90612032565b60405180910390fd5b5f5f61077385611518565b8154811061078457610783611f94565b5b905f5260205f2090600a020190503373ffffffffffffffffffffffffffffffffffffffff16816008015f9054906101000a900473ffffffffffffffffffffffffffffffffffffffff1673ffffffffffffffffffffffffffffffffffffffff1614610823576040517f08c379a000000000000000000000000000000000000000000000000000000000815260040161081a9061209a565b60405180910390fd5b5f15158160080160149054906101000a900460ff1615151461087a576040517f08c379a000000000000000000000000000000000000000000000000000000000815260040161087190612102565b60405180910390fd5b5f600281111561088d5761088c611ac0565b5b8160030184600581106108a3576108a2611f94565b5b0183600581106108b6576108b5611f94565b5b602091828204019190069054906101000a900460ff1660028111156108de576108dd611ac0565b5b1461091e576040517f08c379a00000000000000000000000000000000000000000000000000000000081526004016109159061216a565b60405180910390fd5b5f3373ffffffffffffffffffffffffffffffffffffffff16825f015f9054906101000a900473ffffffffffffffffffffffffffffffffffffffff1673ffffffffffffffffffffffffffffffffffffffff161461097b57600261097e565b60015b90508082600301856005811061099757610996611f94565b5b0184600581106109aa576109a9611f94565b5b602091828204019190066101000a81548160ff021916908360028111156109d4576109d3611ac0565b5b0217905550816009015f8154809291906109ed90611f4d565b91905055506005806109ff9190612188565b60ff16826009015403610c10578160080160149054906101000a9050505f67016345785d8a00009050600281610a3591906121c4565b471015610a77576040517f08c379a0000000000000000000000000000000000000000000000000000000008152600401610a6e90612275565b60405180910390fd5b5f835f015f9054906101000a900473ffffffffffffffffffffffffffffffffffffffff1673ffffffffffffffffffffffffffffffffffffffff1682604051610abe906122c0565b5f6040518083038185875af1925050503d805f8114610af8576040519150601f19603f3d011682016040523d82523d5f602084013e610afd565b606091505b5050905080610b41576040517f08c379a0000000000000000000000000000000000000000000000000000000008152600401610b389061231e565b60405180910390fd5b5f846001015f9054906101000a900473ffffffffffffffffffffffffffffffffffffffff1673ffffffffffffffffffffffffffffffffffffffff1683604051610b89906122c0565b5f6040518083038185875af1925050503d805f8114610bc3576040519150601f19603f3d011682016040523d82523d5f602084013e610bc8565b606091505b5050905080610c0c576040517f08c379a0000000000000000000000000000000000000000000000000000000008152600401610c039061231e565b60405180910390fd5b5050505b5f600190505f600190505f600190505f600190505f5f90505b600560ff16811015610e0f57856002811115610c4857610c47611ac0565b5b876003018a60058110610c5e57610c5d611f94565b5b018260058110610c7157610c70611f94565b5b602091828204019190069054906101000a900460ff166002811115610c9957610c98611ac0565b5b14610ca2575f94505b856002811115610cb557610cb4611ac0565b5b876003018260058110610ccb57610cca611f94565b5b018960058110610cde57610cdd611f94565b5b602091828204019190069054906101000a900460ff166002811115610d0657610d05611ac0565b5b14610d0f575f93505b856002811115610d2257610d21611ac0565b5b876003018260058110610d3857610d37611f94565b5b018260058110610d4b57610d4a611f94565b5b602091828204019190069054906101000a900460ff166002811115610d7357610d72611ac0565b5b14610d7c575f92505b856002811115610d8f57610d8e611ac0565b5b876003018260058110610da557610da4611f94565b5b018260016005610db5919061233c565b60ff16610dc29190612370565b60058110610dd357610dd2611f94565b5b602091828204019190069054906101000a900460ff166002811115610dfb57610dfa611ac0565b5b14610e04575f91505b806001019050610c29565b508380610e195750825b80610e215750815b80610e295750805b15610e4257610e37896115a8565b505050505050610f03565b60016002811115610e5657610e55611ac0565b5b856002811115610e6957610e68611ac0565b5b14610e9657855f015f9054906101000a900473ffffffffffffffffffffffffffffffffffffffff16610ebb565b856001015f9054906101000a900473ffffffffffffffffffffffffffffffffffffffff165b866008015f6101000a81548173ffffffffffffffffffffffffffffffffffffffff021916908373ffffffffffffffffffffffffffffffffffffffff1602179055505050505050505b505050565b60605f5f90505f5f90505b5f80549050811015610faf575f73ffffffffffffffffffffffffffffffffffffffff165f8281548110610f4957610f48611f94565b5b905f5260205f2090600a02016001015f9054906101000a900473ffffffffffffffffffffffffffffffffffffffff1673ffffffffffffffffffffffffffffffffffffffff1603610fa2578180610f9e90611f4d565b9250505b8080600101915050610f13565b505f8167ffffffffffffffff811115610fcb57610fca6123a3565b5b60405190808252806020026020018201604052801561100457816020015b610ff1611708565b815260200190600190039081610fe95790505b5090505f5f90505f5f90505b5f805490508110156112cd575f73ffffffffffffffffffffffffffffffffffffffff165f828154811061104657611045611f94565b5b905f5260205f2090600a02016001015f9054906101000a900473ffffffffffffffffffffffffffffffffffffffff1673ffffffffffffffffffffffffffffffffffffffff16036112c0575f81815481106110a3576110a2611f94565b5b905f5260205f2090600a02016040518060e00160405290815f82015f9054906101000a900473ffffffffffffffffffffffffffffffffffffffff1673ffffffffffffffffffffffffffffffffffffffff1673ffffffffffffffffffffffffffffffffffffffff168152602001600182015f9054906101000a900473ffffffffffffffffffffffffffffffffffffffff1673ffffffffffffffffffffffffffffffffffffffff1673ffffffffffffffffffffffffffffffffffffffff1681526020016002820154815260200160038201600580602002604051908101604052809291905f905b82821015611211578382016005806020026040519081016040528092919082600580156111fd576020028201915f905b82829054906101000a900460ff1660028111156111d8576111d7611ac0565b5b815260200190600101906020825f010492830192600103820291508084116111b85790505b505050505081526020019060010190611188565b505050508152602001600882015f9054906101000a900473ffffffffffffffffffffffffffffffffffffffff1673ffffffffffffffffffffffffffffffffffffffff1673ffffffffffffffffffffffffffffffffffffffff1681526020016008820160149054906101000a900460ff161515151581526020016009820154815250508383815181106112a6576112a5611f94565b5b602002602001018190525081806112bc90611f4d565b9250505b8080600101915050611010565b5081935050505090565b67016345785d8a000081565b5f6112ed82611518565b90505f5f828154811061130357611302611f94565b5b905f5260205f2090600a020190503373ffffffffffffffffffffffffffffffffffffffff16815f015f9054906101000a900473ffffffffffffffffffffffffffffffffffffffff1673ffffffffffffffffffffffffffffffffffffffff16036113a1576040517f08c379a00000000000000000000000000000000000000000000000000000000081526004016113989061241a565b60405180910390fd5b5f73ffffffffffffffffffffffffffffffffffffffff16816001015f9054906101000a900473ffffffffffffffffffffffffffffffffffffffff1673ffffffffffffffffffffffffffffffffffffffff1614611432576040517f08c379a000000000000000000000000000000000000000000000000000000000815260040161142990612482565b60405180910390fd5b67016345785d8a0000341461147c576040517f08c379a000000000000000000000000000000000000000000000000000000000815260040161147390611ecf565b60405180910390fd5b3460025f82825461148d9190611f1a565b9250508190555033816001015f6101000a81548173ffffffffffffffffffffffffffffffffffffffff021916908373ffffffffffffffffffffffffffffffffffffffff1602179055507f45c4f9cbafe186141862608c493f28b823fde4c2142bedc3f5169961a73fdd2281600201543360405161150b929190611fc1565b60405180910390a1505050565b5f5f5f90505b5f8054905081101561156757825f828154811061153e5761153d611f94565b5b905f5260205f2090600a0201600201540361155c57809150506115a3565b80600101905061151e565b506040517f08c379a000000000000000000000000000000000000000000000000000000000815260040161159a906124ea565b60405180910390fd5b919050565b5f5f82815481106115bc576115bb611f94565b5b905f5260205f2090600a0201905060018160080160146101000a81548160ff0219169083151502179055505f600267016345785d8a00006115fd91906121c4565b905080471015611642576040517f08c379a000000000000000000000000000000000000000000000000000000000815260040161163990612275565b60405180910390fd5b5f3373ffffffffffffffffffffffffffffffffffffffff1682604051611667906122c0565b5f6040518083038185875af1925050503d805f81146116a1576040519150601f19603f3d011682016040523d82523d5f602084013e6116a6565b606091505b50509050806116ea576040517f08c379a00000000000000000000000000000000000000000000000000000000081526004016116e19061231e565b60405180910390fd5b8160025f8282546116fb9190612370565b9250508190555050505050565b6040518060e001604052805f73ffffffffffffffffffffffffffffffffffffffff1681526020015f73ffffffffffffffffffffffffffffffffffffffff1681526020015f81526020016117596117d7565b81526020015f73ffffffffffffffffffffffffffffffffffffffff1681526020015f151581526020015f81525090565b82600581019282156117c6579160200282015b828111156117c5578251829060056117b5929190611804565b509160200191906001019061179c565b5b5090506117d391906118aa565b5090565b6040518060a001604052806005905b6117ee6118cd565b8152602001906001900390816117e65790505090565b826005601f01602090048101928215611899579160200282015f5b8382111561186b57835183826101000a81548160ff0219169083600281111561184b5761184a611ac0565b5b021790555092602001926001016020815f0104928301926001030261181f565b80156118975782816101000a81549060ff02191690556001016020815f0104928301926001030261186b565b505b5090506118a691906118ef565b5090565b5b808211156118c9575f81816118c0919061190a565b506001016118ab565b5090565b6040518060a00160405280600590602082028036833780820191505090505090565b5b80821115611906575f815f9055506001016118f0565b5090565b505f9055565b5f60ff82169050919050565b61192581611910565b82525050565b5f60208201905061193e5f83018461191c565b92915050565b5f5ffd5b5f819050919050565b61195a81611948565b8114611964575f5ffd5b50565b5f8135905061197581611951565b92915050565b5f602082840312156119905761198f611944565b5b5f61199d84828501611967565b91505092915050565b5f73ffffffffffffffffffffffffffffffffffffffff82169050919050565b5f6119cf826119a6565b9050919050565b6119df816119c5565b82525050565b6119ee81611948565b82525050565b5f8115159050919050565b611a08816119f4565b82525050565b5f60c082019050611a215f8301896119d6565b611a2e60208301886119d6565b611a3b60408301876119e5565b611a4860608301866119d6565b611a5560808301856119ff565b611a6260a08301846119e5565b979650505050505050565b5f602082019050611a805f8301846119e5565b92915050565b5f60059050919050565b5f81905092915050565b5f819050919050565b5f60059050919050565b5f81905092915050565b5f819050919050565b7f4e487b71000000000000000000000000000000000000000000000000000000005f52602160045260245ffd5b60038110611afe57611afd611ac0565b5b50565b5f819050611b0e82611aed565b919050565b5f611b1d82611b01565b9050919050565b611b2d81611b13565b82525050565b5f611b3e8383611b24565b60208301905092915050565b5f602082019050919050565b611b5f81611aa3565b611b698184611aad565b9250611b7482611ab7565b805f5b83811015611ba4578151611b8b8782611b33565b9650611b9683611b4a565b925050600181019050611b77565b505050505050565b5f611bb78383611b56565b60a08301905092915050565b5f602082019050919050565b611bd881611a86565b611be28184611a90565b9250611bed82611a9a565b805f5b83811015611c1d578151611c048782611bac565b9650611c0f83611bc3565b925050600181019050611bf0565b505050505050565b5f61032082019050611c395f830184611bcf565b92915050565b5f5f5f60608486031215611c5657611c55611944565b5b5f611c6386828701611967565b9350506020611c7486828701611967565b9250506040611c8586828701611967565b9150509250925092565b5f81519050919050565b5f82825260208201905092915050565b5f819050602082019050919050565b611cc1816119c5565b82525050565b611cd081611948565b82525050565b5f81905092915050565b611ce981611a86565b611cf38184611cd6565b9250611cfe82611a9a565b805f5b83811015611d2e578151611d158782611bac565b9650611d2083611bc3565b925050600181019050611d01565b505050505050565b611d3f816119f4565b82525050565b6103e082015f820151611d5a5f850182611cb8565b506020820151611d6d6020850182611cb8565b506040820151611d806040850182611cc7565b506060820151611d936060850182611ce0565b506080820151611da7610380850182611cb8565b5060a0820151611dbb6103a0850182611d36565b5060c0820151611dcf6103c0850182611cc7565b50505050565b5f611de08383611d45565b6103e08301905092915050565b5f602082019050919050565b5f611e0382611c8f565b611e0d8185611c99565b9350611e1883611ca9565b805f5b83811015611e48578151611e2f8882611dd5565b9750611e3a83611ded565b925050600181019050611e1b565b5085935050505092915050565b5f6020820190508181035f830152611e6d8184611df9565b905092915050565b5f82825260208201905092915050565b7f4d7573742073656e642065786163746c7920302e3120455448000000000000005f82015250565b5f611eb9601983611e75565b9150611ec482611e85565b602082019050919050565b5f6020820190508181035f830152611ee681611ead565b9050919050565b7f4e487b71000000000000000000000000000000000000000000000000000000005f52601160045260245ffd5b5f611f2482611948565b9150611f2f83611948565b9250828201905080821115611f4757611f46611eed565b5b92915050565b5f611f5782611948565b91507fffffffffffffffffffffffffffffffffffffffffffffffffffffffffffffffff8203611f8957611f88611eed565b5b600182019050919050565b7f4e487b71000000000000000000000000000000000000000000000000000000005f52603260045260245ffd5b5f604082019050611fd45f8301856119e5565b611fe160208301846119d6565b9392505050565b7f496e76616c6964206669656c64000000000000000000000000000000000000005f82015250565b5f61201c600d83611e75565b915061202782611fe8565b602082019050919050565b5f6020820190508181035f83015261204981612010565b9050919050565b7f4e6f7420796f7572207475726e000000000000000000000000000000000000005f82015250565b5f612084600d83611e75565b915061208f82612050565b602082019050919050565b5f6020820190508181035f8301526120b181612078565b9050919050565b7f5468652067616d6520697320616c7265616479206f76657200000000000000005f82015250565b5f6120ec601883611e75565b91506120f7826120b8565b602082019050919050565b5f6020820190508181035f830152612119816120e0565b9050919050565b7f4669656c6420616c7265616479207365740000000000000000000000000000005f82015250565b5f612154601183611e75565b915061215f82612120565b602082019050919050565b5f6020820190508181035f83015261218181612148565b9050919050565b5f61219282611910565b915061219d83611910565b92508282026121ab81611910565b91508082146121bd576121bc611eed565b5b5092915050565b5f6121ce82611948565b91506121d983611948565b92508282026121e781611948565b915082820484148315176121fe576121fd611eed565b5b5092915050565b7f4e6f7420656e6f7567682062616c616e6365206f6e2074686520636f6e7472615f8201527f6374000000000000000000000000000000000000000000000000000000000000602082015250565b5f61225f602283611e75565b915061226a82612205565b604082019050919050565b5f6020820190508181035f83015261228c81612253565b9050919050565b5f81905092915050565b50565b5f6122ab5f83612293565b91506122b68261229d565b5f82019050919050565b5f6122ca826122a0565b9150819050919050565b7f4661696c656420746f2073656e642045544800000000000000000000000000005f82015250565b5f612308601283611e75565b9150612313826122d4565b602082019050919050565b5f6020820190508181035f830152612335816122fc565b9050919050565b5f61234682611910565b915061235183611910565b9250828203905060ff81111561236a57612369611eed565b5b92915050565b5f61237a82611948565b915061238583611948565b925082820390508181111561239d5761239c611eed565b5b92915050565b7f4e487b71000000000000000000000000000000000000000000000000000000005f52604160045260245ffd5b7f596f752063616e6e6f74206a6f696e20796f7572206f776e2067616d650000005f82015250565b5f612404601d83611e75565b915061240f826123d0565b602082019050919050565b5f6020820190508181035f830152612431816123f8565b9050919050565b7f47616d6520616c7265616479206861732074776f20706c6179657273000000005f82015250565b5f61246c601c83611e75565b915061247782612438565b602082019050919050565b5f6020820190508181035f83015261249981612460565b9050919050565b7f47616d65206e6f7420666f756e640000000000000000000000000000000000005f82015250565b5f6124d4600e83611e75565b91506124df826124a0565b602082019050919050565b5f6020820190508181035f830152612501816124c8565b905091905056fea26469706673582212200e5657ee6c7c0d8e24dc07f41c0b08de59a91a712a0c2dc6bf8356a62629115c64736f6c634300081c0033",
  "linkReferences": {},
  "deployedLinkReferences": {},
  "immutableReferences": {},
  "inputSourceName": "project/contracts/TicTacToe.sol",
  "buildInfoId": "solc-0_8_28-77a99a4dfb97dffc2deb9ca2a567d3965a2cd2a7"
}