{
  "_format": "hh3-artifact-1",
  "contractName": "TicTacToe",
  "sourceName": "contracts/TicTacToe.sol",
  "abi": [
    {
      "inputs": [],
      "stateMutability": "nonpayable",
      "type": "constructor"
    },
    {
      "anonymous": false,
      "inputs": [
        {
          "indexed": true,
          "internalType": "uint256",
          "name": "gameId",
          "type": "uint256"
        },
        {
          "indexed": true,
          "internalType": "address",
          "name": "player1",
          "type": "address"
        }
      ],
      "name": "GameCreated",
      "type": "event"
    },
    {
      "anonymous": false,
      "inputs": [
        {
          "indexed": true,
          "internalType": "uint256",
          "name": "gameId",
          "type": "uint256"
        },
        {
          "indexed": true,
          "internalType": "address",
          "name": "winner",
          "type": "address"
        },
        {
          "indexed": false,
          "internalType": "bool",
          "name": "isDraw",
          "type": "bool"
        }
      ],
      "name": "GameFinished",
      "type": "event"
    },
    {
      "anonymous": false,
      "inputs": [
        {
          "indexed": true,
          "internalType": "uint256",
          "name": "gameId",
          "type": "uint256"
        },
        {
          "indexed": true,
          "internalType": "address",
          "name": "player1",
          "type": "address"
        },
        {
          "indexed": true,
          "internalType": "address",
          "name": "player2",
          "type": "address"
        }
      ],
      "name": "GameJoined",
      "type": "event"
    },
    {
      "anonymous": false,
      "inputs": [
        {
          "indexed": true,
          "internalType": "uint256",
          "name": "gameId",
          "type": "uint256"
        },
        {
          "indexed": true,
          "internalType": "address",
          "name": "player",
          "type": "address"
        },
        {
          "indexed": false,
          "internalType": "uint256",
          "name": "x",
          "type": "uint256"
        },
        {
          "indexed": false,
          "internalType": "uint256",
          "name": "y",
          "type": "uint256"
        },
        {
          "indexed": false,
          "internalType": "address",
          "name": "nextPlayer",
          "type": "address"
        }
      ],
      "name": "MoveMade",
      "type": "event"
    },
    {
      "inputs": [],
      "name": "DEPOSIT_AMOUNT",
      "outputs": [
        {
          "internalType": "uint256",
          "name": "",
          "type": "uint256"
        }
      ],
      "stateMutability": "view",
      "type": "function"
    },
    {
      "inputs": [],
      "name": "FILED_SIZE",
      "outputs": [
        {
          "internalType": "uint8",
          "name": "",
          "type": "uint8"
        }
      ],
      "stateMutability": "view",
      "type": "function"
    },
    {
      "inputs": [],
      "name": "createGame",
      "outputs": [],
      "stateMutability": "payable",
      "type": "function"
    },
    {
      "inputs": [
        {
          "internalType": "uint256",
          "name": "",
          "type": "uint256"
        }
      ],
      "name": "games",
      "outputs": [
        {
          "internalType": "address",
          "name": "player1",
          "type": "address"
        },
        {
          "internalType": "address",
          "name": "player2",
          "type": "address"
        },
        {
          "internalType": "uint256",
          "name": "id",
          "type": "uint256"
        },
        {
          "internalType": "address",
          "name": "currentPlayer",
          "type": "address"
        },
        {
          "internalType": "bool",
          "name": "isFinished",
          "type": "bool"
        },
        {
          "internalType": "uint256",
          "name": "moves",
          "type": "uint256"
        }
      ],
      "stateMutability": "view",
      "type": "function"
    },
    {
      "inputs": [],
      "name": "getActiveGamesForSender",
      "outputs": [
        {
          "components": [
            {
              "internalType": "address",
              "name": "player1",
              "type": "address"
            },
            {
              "internalType": "address",
              "name": "player2",
              "type": "address"
            },
            {
              "internalType": "uint256",
              "name": "id",
              "type": "uint256"
            },
            {
              "internalType": "enum TicTacToe.FieldStatus[5][5]",
              "name": "board",
              "type": "uint8[5][5]"
            },
            {
              "internalType": "address",
              "name": "currentPlayer",
              "type": "address"
            },
            {
              "internalType": "bool",
              "name": "isFinished",
              "type": "bool"
            },
            {
              "internalType": "uint256",
              "name": "moves",
              "type": "uint256"
            }
          ],
          "internalType": "struct TicTacToe.Game[]",
          "name": "",
          "type": "tuple[]"
        }
      ],
      "stateMutability": "view",
      "type": "function"
    },
    {
      "inputs": [
        {
          "internalType": "uint256",
          "name": "gameId",
          "type": "uint256"
        }
      ],
      "name": "getCurrentPlayer",
      "outputs": [
        {
          "internalType": "address",
          "name": "",
          "type": "address"
        }
      ],
      "stateMutability": "view",
      "type": "function"
    },
    {
      "inputs": [
        {
          "internalType": "uint256",
          "name": "gameId",
          "type": "uint256"
        }
      ],
      "name": "getGame",
      "outputs": [
        {
          "internalType": "enum TicTacToe.FieldStatus[5][5]",
          "name": "",
          "type": "uint8[5][5]"
        }
      ],
      "stateMutability": "view",
      "type": "function"
    },
    {
      "inputs": [],
      "name": "getOpenGames",
      "outputs": [
        {
          "components": [
            {
              "internalType": "address",
              "name": "player1",
              "type": "address"
            },
            {
              "internalType": "address",
              "name": "player2",
              "type": "address"
            },
            {
              "internalType": "uint256",
              "name": "id",
              "type": "uint256"
            },
            {
              "internalType": "enum TicTacToe.FieldStatus[5][5]",
              "name": "board",
              "type": "uint8[5][5]"
            },
            {
              "internalType": "address",
              "name": "currentPlayer",
              "type": "address"
            },
            {
              "internalType": "bool",
              "name": "isFinished",
              "type": "bool"
            },
            {
              "internalType": "uint256",
              "name": "moves",
              "type": "uint256"
            }
          ],
          "internalType": "struct TicTacToe.Game[]",
          "name": "",
          "type": "tuple[]"
        }
      ],
      "stateMutability": "view",
      "type": "function"
    },
    {
      "inputs": [
        {
          "internalType": "uint256",
          "name": "gameId",
          "type": "uint256"
        }
      ],
      "name": "joinGame",
      "outputs": [],
      "stateMutability": "payable",
      "type": "function"
    },
    {
      "inputs": [
        {
          "internalType": "uint256",
          "name": "gameId",
          "type": "uint256"
        },
        {
          "internalType": "uint256",
          "name": "x",
          "type": "uint256"
        },
        {
          "internalType": "uint256",
          "name": "y",
          "type": "uint256"
        }
      ],
      "name": "makeMove",
      "outputs": [],
      "stateMutability": "nonpayable",
      "type": "function"
    },
    {
      "inputs": [],
      "name": "nextgameId",
      "outputs": [
        {
          "internalType": "uint256",
          "name": "",
          "type": "uint256"
        }
      ],
      "stateMutability": "view",
      "type": "function"
    },
    {
      "inputs": [],
      "name": "totalVolume",
      "outputs": [
        {
          "internalType": "uint256",
          "name": "",
          "type": "uint256"
        }
      ],
      "stateMutability": "view",
      "type": "function"
    },
    {
      "stateMutability": "payable",
      "type": "receive"
    }
  ],
  "bytecode": "0x6080604052348015600e575f5ffd5b50612d5d8061001c5f395ff3fe6080604052600436106100aa575f3560e01c80637bd3f50f116100635780637bd3f50f146101ba578063a2f77bcc146101e4578063cfc2f5ff14610220578063e75d7e3e14610248578063ec6925a714610272578063efaa55a01461029c576100b1565b806302d3ebb7146100b55780630ad85a02146100df578063117a5b9014610109578063266386311461014a5780635f81a57c146101865780637255d729146101b0576100b1565b366100b157005b5f5ffd5b3480156100c0575f5ffd5b506100c96102b8565b6040516100d6919061210a565b60405180910390f35b3480156100ea575f5ffd5b506100f36102bd565b604051610100919061213b565b60405180910390f35b348015610114575f5ffd5b5061012f600480360381019061012a9190612182565b6102c3565b60405161014196959493929190612206565b60405180910390f35b348015610155575f5ffd5b50610170600480360381019061016b9190612182565b610373565b60405161017d9190612265565b60405180910390f35b348015610191575f5ffd5b5061019a6103bd565b6040516101a7919061213b565b60405180910390f35b6101b86103c3565b005b3480156101c5575f5ffd5b506101ce6106f8565b6040516101db9190612583565b60405180910390f35b3480156101ef575f5ffd5b5061020a60048036038101906102059190612182565b610ca0565b6040516102179190612603565b60405180910390f35b34801561022b575f5ffd5b506102466004803603810190610241919061261d565b610d74565b005b348015610253575f5ffd5b5061025c611654565b6040516102699190612583565b60405180910390f35b34801561027d575f5ffd5b50610286611a23565b604051610293919061213b565b60405180910390f35b6102b660048036038101906102b19190612182565b611a2f565b005b600581565b60015481565b5f81815481106102d1575f80fd5b905f5260205f2090600a02015f91509050805f015f9054906101000a900473ffffffffffffffffffffffffffffffffffffffff1690806001015f9054906101000a900473ffffffffffffffffffffffffffffffffffffffff1690806002015490806008015f9054906101000a900473ffffffffffffffffffffffffffffffffffffffff16908060080160149054906101000a900460ff16908060090154905086565b5f5f82815481106103875761038661266d565b5b905f5260205f2090600a02016008015f9054906101000a900473ffffffffffffffffffffffffffffffffffffffff169050919050565b60025481565b67016345785d8a0000341461040d576040517f08c379a0000000000000000000000000000000000000000000000000000000008152600401610404906126f4565b60405180910390fd5b3460025f82825461041e919061273f565b9250508190555061042d611ee7565b33815f019073ffffffffffffffffffffffffffffffffffffffff16908173ffffffffffffffffffffffffffffffffffffffff168152505060015f81548092919061047690612772565b9190505581604001818152505033816080019073ffffffffffffffffffffffffffffffffffffffff16908173ffffffffffffffffffffffffffffffffffffffff16815250505f8160a00190151590811515815250505f5f90505b600560ff16811015610566575f5f90505b600560ff16811015610558575f836060015183600581106105055761050461266d565b5b6020020151826005811061051c5761051b61266d565b5b60200201906002811115610533576105326122ff565b5b90816002811115610547576105466122ff565b5b8152505080806001019150506104e1565b5080806001019150506104d0565b505f81908060018154018082558091505060019003905f5260205f2090600a02015f909190919091505f820151815f015f6101000a81548173ffffffffffffffffffffffffffffffffffffffff021916908373ffffffffffffffffffffffffffffffffffffffff1602179055506020820151816001015f6101000a81548173ffffffffffffffffffffffffffffffffffffffff021916908373ffffffffffffffffffffffffffffffffffffffff1602179055506040820151816002015560608201518160030190600561063a929190611f68565b506080820151816008015f6101000a81548173ffffffffffffffffffffffffffffffffffffffff021916908373ffffffffffffffffffffffffffffffffffffffff16021790555060a08201518160080160146101000a81548160ff02191690831515021790555060c0820151816009015550503373ffffffffffffffffffffffffffffffffffffffff1681604001517fc3e0f84839dc888c892a013d10c8f9d6dc05a21a879d0ce468ca558013e9121c60405160405180910390a350565b60605f5f90505f5f90505b5f805490508110156108c8573373ffffffffffffffffffffffffffffffffffffffff165f82815481106107395761073861266d565b5b905f5260205f2090600a02015f015f9054906101000a900473ffffffffffffffffffffffffffffffffffffffff1673ffffffffffffffffffffffffffffffffffffffff1614806107f557503373ffffffffffffffffffffffffffffffffffffffff165f82815481106107ae576107ad61266d565b5b905f5260205f2090600a02016001015f9054906101000a900473ffffffffffffffffffffffffffffffffffffffff1673ffffffffffffffffffffffffffffffffffffffff16145b801561082e57505f818154811061080f5761080e61266d565b5b905f5260205f2090600a020160080160149054906101000a900460ff16155b80156108a757505f73ffffffffffffffffffffffffffffffffffffffff165f828154811061085f5761085e61266d565b5b905f5260205f2090600a02016001015f9054906101000a900473ffffffffffffffffffffffffffffffffffffffff1673ffffffffffffffffffffffffffffffffffffffff1614155b156108bb5781806108b790612772565b9250505b8080600101915050610703565b505f8167ffffffffffffffff8111156108e4576108e36127b9565b5b60405190808252806020026020018201604052801561091d57816020015b61090a611ee7565b8152602001906001900390816109025790505b5090505f5f90505f5f90505b5f80549050811015610c96573373ffffffffffffffffffffffffffffffffffffffff165f828154811061095f5761095e61266d565b5b905f5260205f2090600a02015f015f9054906101000a900473ffffffffffffffffffffffffffffffffffffffff1673ffffffffffffffffffffffffffffffffffffffff161480610a1b57503373ffffffffffffffffffffffffffffffffffffffff165f82815481106109d4576109d361266d565b5b905f5260205f2090600a02016001015f9054906101000a900473ffffffffffffffffffffffffffffffffffffffff1673ffffffffffffffffffffffffffffffffffffffff16145b8015610a5457505f8181548110610a3557610a3461266d565b5b905f5260205f2090600a020160080160149054906101000a900460ff16155b15610c89575f8181548110610a6c57610a6b61266d565b5b905f5260205f2090600a02016040518060e00160405290815f82015f9054906101000a900473ffffffffffffffffffffffffffffffffffffffff1673ffffffffffffffffffffffffffffffffffffffff1673ffffffffffffffffffffffffffffffffffffffff168152602001600182015f9054906101000a900473ffffffffffffffffffffffffffffffffffffffff1673ffffffffffffffffffffffffffffffffffffffff1673ffffffffffffffffffffffffffffffffffffffff1681526020016002820154815260200160038201600580602002604051908101604052809291905f905b82821015610bda57838201600580602002604051908101604052809291908260058015610bc6576020028201915f905b82829054906101000a900460ff166002811115610ba157610ba06122ff565b5b815260200190600101906020825f01049283019260010382029150808411610b815790505b505050505081526020019060010190610b51565b505050508152602001600882015f9054906101000a900473ffffffffffffffffffffffffffffffffffffffff1673ffffffffffffffffffffffffffffffffffffffff1673ffffffffffffffffffffffffffffffffffffffff1681526020016008820160149054906101000a900460ff16151515158152602001600982015481525050838381518110610c6f57610c6e61266d565b5b60200260200101819052508180610c8590612772565b9250505b8080600101915050610929565b5081935050505090565b610ca8611fb6565b5f8281548110610cbb57610cba61266d565b5b905f5260205f2090600a0201600301600580602002604051908101604052809291905f905b82821015610d6957838201600580602002604051908101604052809291908260058015610d55576020028201915f905b82829054906101000a900460ff166002811115610d3057610d2f6122ff565b5b815260200190600101906020825f01049283019260010382029150808411610d105790505b505050505081526020019060010190610ce0565b505050509050919050565b5f8210158015610d875750600560ff1682105b8015610d9357505f8110155b8015610da25750600560ff1681105b610de1576040517f08c379a0000000000000000000000000000000000000000000000000000000008152600401610dd890612830565b60405180910390fd5b5f5f610dec85611ca8565b81548110610dfd57610dfc61266d565b5b905f5260205f2090600a020190503373ffffffffffffffffffffffffffffffffffffffff16816008015f9054906101000a900473ffffffffffffffffffffffffffffffffffffffff1673ffffffffffffffffffffffffffffffffffffffff1614610e9c576040517f08c379a0000000000000000000000000000000000000000000000000000000008152600401610e9390612898565b60405180910390fd5b5f15158160080160149054906101000a900460ff16151514610ef3576040517f08c379a0000000000000000000000000000000000000000000000000000000008152600401610eea90612900565b60405180910390fd5b5f6002811115610f0657610f056122ff565b5b816003018460058110610f1c57610f1b61266d565b5b018360058110610f2f57610f2e61266d565b5b602091828204019190069054906101000a900460ff166002811115610f5757610f566122ff565b5b14610f97576040517f08c379a0000000000000000000000000000000000000000000000000000000008152600401610f8e90612968565b60405180910390fd5b5f3373ffffffffffffffffffffffffffffffffffffffff16825f015f9054906101000a900473ffffffffffffffffffffffffffffffffffffffff1673ffffffffffffffffffffffffffffffffffffffff1614610ff4576002610ff7565b60015b9050808260030185600581106110105761100f61266d565b5b0184600581106110235761102261266d565b5b602091828204019190066101000a81548160ff0219169083600281111561104d5761104c6122ff565b5b0217905550816009015f81548092919061106690612772565b91905055506005806110789190612986565b60ff168260090154036112e65760018260080160146101000a81548160ff0219169083151502179055505f67016345785d8a000090506002816110bb91906129c2565b4710156110fd576040517f08c379a00000000000000000000000000000000000000000000000000000000081526004016110f490612a73565b60405180910390fd5b5f835f015f9054906101000a900473ffffffffffffffffffffffffffffffffffffffff1673ffffffffffffffffffffffffffffffffffffffff168260405161114490612abe565b5f6040518083038185875af1925050503d805f811461117e576040519150601f19603f3d011682016040523d82523d5f602084013e611183565b606091505b50509050806111c7576040517f08c379a00000000000000000000000000000000000000000000000000000000081526004016111be90612b1c565b60405180910390fd5b5f846001015f9054906101000a900473ffffffffffffffffffffffffffffffffffffffff1673ffffffffffffffffffffffffffffffffffffffff168360405161120f90612abe565b5f6040518083038185875af1925050503d805f8114611249576040519150601f19603f3d011682016040523d82523d5f602084013e61124e565b606091505b5050905080611292576040517f08c379a000000000000000000000000000000000000000000000000000000000815260040161128990612b1c565b60405180910390fd5b3373ffffffffffffffffffffffffffffffffffffffff16887f3c407d684f8e26ac47a42a0e982bc16fe05e96ce344f63a5736ec6c2690d778060016040516112da9190612b3a565b60405180910390a35050505b5f600190505f600190505f600190505f600190505f5f90505b600560ff168110156114e55785600281111561131e5761131d6122ff565b5b876003018a600581106113345761133361266d565b5b0182600581106113475761134661266d565b5b602091828204019190069054906101000a900460ff16600281111561136f5761136e6122ff565b5b14611378575f94505b85600281111561138b5761138a6122ff565b5b8760030182600581106113a1576113a061266d565b5b0189600581106113b4576113b361266d565b5b602091828204019190069054906101000a900460ff1660028111156113dc576113db6122ff565b5b146113e5575f93505b8560028111156113f8576113f76122ff565b5b87600301826005811061140e5761140d61266d565b5b0182600581106114215761142061266d565b5b602091828204019190069054906101000a900460ff166002811115611449576114486122ff565b5b14611452575f92505b856002811115611465576114646122ff565b5b87600301826005811061147b5761147a61266d565b5b01826001600561148b9190612b53565b60ff166114989190612b87565b600581106114a9576114a861266d565b5b602091828204019190069054906101000a900460ff1660028111156114d1576114d06122ff565b5b146114da575f91505b8060010190506112ff565b5083806114ef5750825b806114f75750815b806114ff5750805b156115185761150d89611d38565b50505050505061164f565b6001600281111561152c5761152b6122ff565b5b85600281111561153f5761153e6122ff565b5b1461156c57855f015f9054906101000a900473ffffffffffffffffffffffffffffffffffffffff16611591565b856001015f9054906101000a900473ffffffffffffffffffffffffffffffffffffffff165b866008015f6101000a81548173ffffffffffffffffffffffffffffffffffffffff021916908373ffffffffffffffffffffffffffffffffffffffff1602179055503373ffffffffffffffffffffffffffffffffffffffff16897faca79c7ce34a22352147e331697fb33777129b09638cb5ab6e251b264b41cc478a8a8a6008015f9054906101000a900473ffffffffffffffffffffffffffffffffffffffff1660405161164093929190612bba565b60405180910390a35050505050505b505050565b60605f5f90505f5f90505b5f805490508110156116fb575f73ffffffffffffffffffffffffffffffffffffffff165f82815481106116955761169461266d565b5b905f5260205f2090600a02016001015f9054906101000a900473ffffffffffffffffffffffffffffffffffffffff1673ffffffffffffffffffffffffffffffffffffffff16036116ee5781806116ea90612772565b9250505b808060010191505061165f565b505f8167ffffffffffffffff811115611717576117166127b9565b5b60405190808252806020026020018201604052801561175057816020015b61173d611ee7565b8152602001906001900390816117355790505b5090505f5f90505f5f90505b5f80549050811015611a19575f73ffffffffffffffffffffffffffffffffffffffff165f82815481106117925761179161266d565b5b905f5260205f2090600a02016001015f9054906101000a900473ffffffffffffffffffffffffffffffffffffffff1673ffffffffffffffffffffffffffffffffffffffff1603611a0c575f81815481106117ef576117ee61266d565b5b905f5260205f2090600a02016040518060e00160405290815f82015f9054906101000a900473ffffffffffffffffffffffffffffffffffffffff1673ffffffffffffffffffffffffffffffffffffffff1673ffffffffffffffffffffffffffffffffffffffff168152602001600182015f9054906101000a900473ffffffffffffffffffffffffffffffffffffffff1673ffffffffffffffffffffffffffffffffffffffff1673ffffffffffffffffffffffffffffffffffffffff1681526020016002820154815260200160038201600580602002604051908101604052809291905f905b8282101561195d57838201600580602002604051908101604052809291908260058015611949576020028201915f905b82829054906101000a900460ff166002811115611924576119236122ff565b5b815260200190600101906020825f010492830192600103820291508084116119045790505b5050505050815260200190600101906118d4565b505050508152602001600882015f9054906101000a900473ffffffffffffffffffffffffffffffffffffffff1673ffffffffffffffffffffffffffffffffffffffff1673ffffffffffffffffffffffffffffffffffffffff1681526020016008820160149054906101000a900460ff161515151581526020016009820154815250508383815181106119f2576119f161266d565b5b60200260200101819052508180611a0890612772565b9250505b808060010191505061175c565b5081935050505090565b67016345785d8a000081565b5f611a3982611ca8565b90505f5f8281548110611a4f57611a4e61266d565b5b905f5260205f2090600a020190503373ffffffffffffffffffffffffffffffffffffffff16815f015f9054906101000a900473ffffffffffffffffffffffffffffffffffffffff1673ffffffffffffffffffffffffffffffffffffffff1603611aed576040517f08c379a0000000000000000000000000000000000000000000000000000000008152600401611ae490612c39565b60405180910390fd5b5f73ffffffffffffffffffffffffffffffffffffffff16816001015f9054906101000a900473ffffffffffffffffffffffffffffffffffffffff1673ffffffffffffffffffffffffffffffffffffffff1614611b7e576040517f08c379a0000000000000000000000000000000000000000000000000000000008152600401611b7590612ca1565b60405180910390fd5b67016345785d8a00003414611bc8576040517f08c379a0000000000000000000000000000000000000000000000000000000008152600401611bbf906126f4565b60405180910390fd5b3460025f828254611bd9919061273f565b9250508190555033816001015f6101000a81548173ffffffffffffffffffffffffffffffffffffffff021916908373ffffffffffffffffffffffffffffffffffffffff1602179055503373ffffffffffffffffffffffffffffffffffffffff16815f015f9054906101000a900473ffffffffffffffffffffffffffffffffffffffff1673ffffffffffffffffffffffffffffffffffffffff1682600201547f8ca5b55df47712c5e59e7aaddc402fc30e6399e3498efec70a7e440bb9d2fac860405160405180910390a4505050565b5f5f5f90505b5f80549050811015611cf757825f8281548110611cce57611ccd61266d565b5b905f5260205f2090600a02016002015403611cec5780915050611d33565b806001019050611cae565b506040517f08c379a0000000000000000000000000000000000000000000000000000000008152600401611d2a90612d09565b60405180910390fd5b919050565b5f5f8281548110611d4c57611d4b61266d565b5b905f5260205f2090600a0201905060018160080160146101000a81548160ff0219169083151502179055505f600267016345785d8a0000611d8d91906129c2565b905080471015611dd2576040517f08c379a0000000000000000000000000000000000000000000000000000000008152600401611dc990612a73565b60405180910390fd5b5f3373ffffffffffffffffffffffffffffffffffffffff1682604051611df790612abe565b5f6040518083038185875af1925050503d805f8114611e31576040519150601f19603f3d011682016040523d82523d5f602084013e611e36565b606091505b5050905080611e7a576040517f08c379a0000000000000000000000000000000000000000000000000000000008152600401611e7190612b1c565b60405180910390fd5b8160025f828254611e8b9190612b87565b925050819055503373ffffffffffffffffffffffffffffffffffffffff16847f3c407d684f8e26ac47a42a0e982bc16fe05e96ce344f63a5736ec6c2690d77805f604051611ed99190612b3a565b60405180910390a350505050565b6040518060e001604052805f73ffffffffffffffffffffffffffffffffffffffff1681526020015f73ffffffffffffffffffffffffffffffffffffffff1681526020015f8152602001611f38611fb6565b81526020015f73ffffffffffffffffffffffffffffffffffffffff1681526020015f151581526020015f81525090565b8260058101928215611fa5579160200282015b82811115611fa457825182906005611f94929190611fe3565b5091602001919060010190611f7b565b5b509050611fb29190612089565b5090565b6040518060a001604052806005905b611fcd6120ac565b815260200190600190039081611fc55790505090565b826005601f01602090048101928215612078579160200282015f5b8382111561204a57835183826101000a81548160ff0219169083600281111561202a576120296122ff565b5b021790555092602001926001016020815f01049283019260010302611ffe565b80156120765782816101000a81549060ff02191690556001016020815f0104928301926001030261204a565b505b50905061208591906120ce565b5090565b5b808211156120a8575f818161209f91906120e9565b5060010161208a565b5090565b6040518060a00160405280600590602082028036833780820191505090505090565b5b808211156120e5575f815f9055506001016120cf565b5090565b505f9055565b5f60ff82169050919050565b612104816120ef565b82525050565b5f60208201905061211d5f8301846120fb565b92915050565b5f819050919050565b61213581612123565b82525050565b5f60208201905061214e5f83018461212c565b92915050565b5f5ffd5b61216181612123565b811461216b575f5ffd5b50565b5f8135905061217c81612158565b92915050565b5f6020828403121561219757612196612154565b5b5f6121a48482850161216e565b91505092915050565b5f73ffffffffffffffffffffffffffffffffffffffff82169050919050565b5f6121d6826121ad565b9050919050565b6121e6816121cc565b82525050565b5f8115159050919050565b612200816121ec565b82525050565b5f60c0820190506122195f8301896121dd565b61222660208301886121dd565b612233604083018761212c565b61224060608301866121dd565b61224d60808301856121f7565b61225a60a083018461212c565b979650505050505050565b5f6020820190506122785f8301846121dd565b92915050565b5f81519050919050565b5f82825260208201905092915050565b5f819050602082019050919050565b6122b0816121cc565b82525050565b6122bf81612123565b82525050565b5f60059050919050565b5f81905092915050565b5f819050919050565b5f60059050919050565b5f81905092915050565b5f819050919050565b7f4e487b71000000000000000000000000000000000000000000000000000000005f52602160045260245ffd5b6003811061233d5761233c6122ff565b5b50565b5f81905061234d8261232c565b919050565b5f61235c82612340565b9050919050565b61236c81612352565b82525050565b5f61237d8383612363565b60208301905092915050565b5f602082019050919050565b61239e816122e2565b6123a881846122ec565b92506123b3826122f6565b805f5b838110156123e35781516123ca8782612372565b96506123d583612389565b9250506001810190506123b6565b505050505050565b5f6123f68383612395565b60a08301905092915050565b5f602082019050919050565b612417816122c5565b61242181846122cf565b925061242c826122d9565b805f5b8381101561245c57815161244387826123eb565b965061244e83612402565b92505060018101905061242f565b505050505050565b61246d816121ec565b82525050565b6103e082015f8201516124885f8501826122a7565b50602082015161249b60208501826122a7565b5060408201516124ae60408501826122b6565b5060608201516124c1606085018261240e565b5060808201516124d56103808501826122a7565b5060a08201516124e96103a0850182612464565b5060c08201516124fd6103c08501826122b6565b50505050565b5f61250e8383612473565b6103e08301905092915050565b5f602082019050919050565b5f6125318261227e565b61253b8185612288565b935061254683612298565b805f5b8381101561257657815161255d8882612503565b97506125688361251b565b925050600181019050612549565b5085935050505092915050565b5f6020820190508181035f83015261259b8184612527565b905092915050565b5f81905092915050565b6125b6816122c5565b6125c081846125a3565b92506125cb826122d9565b805f5b838110156125fb5781516125e287826123eb565b96506125ed83612402565b9250506001810190506125ce565b505050505050565b5f610320820190506126175f8301846125ad565b92915050565b5f5f5f6060848603121561263457612633612154565b5b5f6126418682870161216e565b93505060206126528682870161216e565b92505060406126638682870161216e565b9150509250925092565b7f4e487b71000000000000000000000000000000000000000000000000000000005f52603260045260245ffd5b5f82825260208201905092915050565b7f4d7573742073656e642065786163746c7920302e3120455448000000000000005f82015250565b5f6126de60198361269a565b91506126e9826126aa565b602082019050919050565b5f6020820190508181035f83015261270b816126d2565b9050919050565b7f4e487b71000000000000000000000000000000000000000000000000000000005f52601160045260245ffd5b5f61274982612123565b915061275483612123565b925082820190508082111561276c5761276b612712565b5b92915050565b5f61277c82612123565b91507fffffffffffffffffffffffffffffffffffffffffffffffffffffffffffffffff82036127ae576127ad612712565b5b600182019050919050565b7f4e487b71000000000000000000000000000000000000000000000000000000005f52604160045260245ffd5b7f496e76616c6964206669656c64000000000000000000000000000000000000005f82015250565b5f61281a600d8361269a565b9150612825826127e6565b602082019050919050565b5f6020820190508181035f8301526128478161280e565b9050919050565b7f4e6f7420796f7572207475726e000000000000000000000000000000000000005f82015250565b5f612882600d8361269a565b915061288d8261284e565b602082019050919050565b5f6020820190508181035f8301526128af81612876565b9050919050565b7f5468652067616d6520697320616c7265616479206f76657200000000000000005f82015250565b5f6128ea60188361269a565b91506128f5826128b6565b602082019050919050565b5f6020820190508181035f830152612917816128de565b9050919050565b7f4669656c6420616c7265616479207365740000000000000000000000000000005f82015250565b5f61295260118361269a565b915061295d8261291e565b602082019050919050565b5f6020820190508181035f83015261297f81612946565b9050919050565b5f612990826120ef565b915061299b836120ef565b92508282026129a9816120ef565b91508082146129bb576129ba612712565b5b5092915050565b5f6129cc82612123565b91506129d783612123565b92508282026129e581612123565b915082820484148315176129fc576129fb612712565b5b5092915050565b7f4e6f7420656e6f7567682062616c616e6365206f6e2074686520636f6e7472615f8201527f6374000000000000000000000000000000000000000000000000000000000000602082015250565b5f612a5d60228361269a565b9150612a6882612a03565b604082019050919050565b5f6020820190508181035f830152612a8a81612a51565b9050919050565b5f81905092915050565b50565b5f612aa95f83612a91565b9150612ab482612a9b565b5f82019050919050565b5f612ac882612a9e565b9150819050919050565b7f4661696c656420746f2073656e642045544800000000000000000000000000005f82015250565b5f612b0660128361269a565b9150612b1182612ad2565b602082019050919050565b5f6020820190508181035f830152612b3381612afa565b9050919050565b5f602082019050612b4d5f8301846121f7565b92915050565b5f612b5d826120ef565b9150612b68836120ef565b9250828203905060ff811115612b8157612b80612712565b5b92915050565b5f612b9182612123565b9150612b9c83612123565b9250828203905081811115612bb457612bb3612712565b5b92915050565b5f606082019050612bcd5f83018661212c565b612bda602083018561212c565b612be760408301846121dd565b949350505050565b7f596f752063616e6e6f74206a6f696e20796f7572206f776e2067616d650000005f82015250565b5f612c23601d8361269a565b9150612c2e82612bef565b602082019050919050565b5f6020820190508181035f830152612c5081612c17565b9050919050565b7f47616d6520616c7265616479206861732074776f20706c6179657273000000005f82015250565b5f612c8b601c8361269a565b9150612c9682612c57565b602082019050919050565b5f6020820190508181035f830152612cb881612c7f565b9050919050565b7f47616d65206e6f7420666f756e640000000000000000000000000000000000005f82015250565b5f612cf3600e8361269a565b9150612cfe82612cbf565b602082019050919050565b5f6020820190508181035f830152612d2081612ce7565b905091905056fea264697066735822122001f691651b1d743a70e13efeda1e2abdcf7b491d207d3338947d17205804ec9464736f6c634300081c0033",
  "linkReferences": {},
  "deployedLinkReferences": {},
  "immutableReferences": {},
  "inputSourceName": "project/contracts/TicTacToe.sol",
  "buildInfoId": "solc-0_8_28-b0a09a87cf8b5bfbb6a86cbfb4ed4c97c282217d"
}